:020000040800F2
:10000000301000208D020008093E0008E33C000883
:1000100000000000000000000000000000000000E0
:100020000000000000000000000000000D3E00087D
:1000300000000000000000000B3E00080F3E00081A
:100040009F020008000000009F0200089F020008B5
:100050009F0200089F0200089F0200089F020008FC
:10006000000000009F020008392C0008492C0008FD
:100070009F0200089F0200089F0200080000000085
:100080009F0200089F020008000000009F02000875
:100090009F0200089F0200089F0200089F020008BC
:1000A0009F0200089F0200089F0200089F020008AC
:1000B0008945000800F002F800F0BDF80CA030C837
:1000C000083824182D18A246671EAB4654465D46D4
:1000D000AC4201D100F0AFF87E460F3E0FCCB646E1
:1000E0000126334200D0FB1AA246AB4633431847E1
:1000F0006849000088490000103A02D378C878C1E6
:10010000FAD8520701D330C830C101D504680C6059
:10011000704700000023002400250026103A01D378
:1001200078C1FBD8520700D330C100D50B607047AF
:1001300010B56E2902D100F0B4FC10BD702902D1B7
:1001400000F00BFE10BD662902D104F087FB10BD44
:10015000652902D104F082FB10BD672902D104F0A9
:100160007DFB10BD612902D104F080FB10BD036846
:100170001B0A01D380231943692902D100F088F9B1
:1001800010BD642902D100F083F910BD752902D198
:1001900000F07EF910BD6F2902D100F089FD10BD7D
:1001A000782902D100F0C6FD10BDE92902D100F086
:1001B00025FD10BDE42902D100F020FD10BDF52978
:1001C00002D100F01BFD10BDEF2902D100F07CFD33
:1001D00010BDF82902D100F0BBFD10BD0368DB099A
:1001E00001D380231943632902D100F09DFC10BD87
:1001F000732902D100F0A0FC10BDE32902D101F067
:100200008EF910BDF32902D101F091F910BD002043
:1002100010BD1FB501F0D6F904000020002104F044
:1002200007FB401C60600020002104F0EBFAE06056
:100230001FBD10B510BD01F09EF91146FFF7E9FF93
:1002400004F020FA01F032FD03B4FFF7F2FF03BC23
:1002500001F07CFD70B505460C46164602E00FCC59
:100260000FC5103E102EFAD2082E02D303CC03C5C0
:10027000083E042E07D301CC01C5361F03E02178C8
:100280002970641C6D1C761EF9D270BD074880472A
:1002900007480047FEE7FEE7FEE7FEE7FEE7FEE76A
:1002A00004480549054A064B70470000713E0008A6
:1002B000B5000008300A002030100020300C00206B
:1002C000300C0020FEB5054610460C46184373D08E
:1002D000AE468C460020AD1A01469C4167D3664667
:1002E000002701243D46B61A9D4102D313463A46E3
:1002F0002124654676462F04360C3E432D0CB61A53
:100300009D4104D3150C1B042B4312041034654685
:1003100076462F06360A3E432D0AB61A9D4104D36F
:10032000150E1B022B4312020834654676462F0732
:1003300036093E432D09B61A9D4104D3150F1B0102
:100340002B431201241D65467646AF07B6083E438F
:10035000AD08B61A9D4104D3950F9B002B43920024
:10036000A41C65467646EF0776083E436D08B61A2C
:100370009D411AD392185B41641C16E00018764622
:1003800065464941B71A9D410191009009D36046E5
:10039000B11A98418E468446009801990025401C68
:1003A0006941DD0752082A435B08641EE6D57246A0
:1003B000634603B0F0BDFFE700200146C046C046DB
:1003C0002A462346F5E700007CB51D4616460C007C
:1003D000009001D00019401E084B7B442A46694614
:1003E0000190304600F075FB002C054603D06946AD
:1003F000002000F081FB28467CBD0000250700009E
:100400000FB47CB50C0009AA009001D00019401E61
:10041000094B7B4469460190089800F05AFB002C78
:10042000054603D06946002000F066FB28467CBCE8
:1004300008BC04B018470000ED06000070B50C467B
:100440000546012A05D02878800600D5EA690023F0
:1004500002E0012305E05B1C934202D2E05C00282D
:10046000F9D1A869E618C01AA861286AC0182862DC
:10047000284600F085FA04E06A682078A968641CC0
:100480009047B442F8D3284600F090FA70BD0000BF
:10049000F7B5002575291068009914A611D000F051
:1004A00096FA002802DA404211A608E0009909688D
:1004B0008A0701D50FA602E0490704D50EA601253B
:1004C00001E000F08DFA009F0024243704E000F0E2
:1004D00051FC30313955641C0028F8D12B46324686
:1004E0002146009800F085FAFEBD000000000000E3
:1004F0002D0000002B00000020000000F3B5044692
:10050000002081B020622046E1688847002872D030
:10051000252802D06268A168ABE0594F00267F44CD
:100520002046E16888472028054608DB312D06D2A1
:10053000781920380078002801D00643F0E7B0078A
:1005400001D5042086430020E0610746A0612A2DE2
:100550000AD0284604F082F8002827D0B8000019F5
:10056000303D0090856119E00298BA00121902C866
:10057000916102902046E1688847012F054617D116
:10058000E06900281FDA202086431CE000980A2139
:100590008069484300994019303888612046E168F5
:1005A0008847054604F05AF80028EFD1012F0AD0F9
:1005B0002E2D08D12046E1688847054620200643B5
:1005C0007F1C022FC3DBA069002803DA4042A06130
:1005D00001200643F00701D0102086436C2D0BD07C
:1005E000682D09D04C2D3CD06A2D38D0742D38D0D0
:1005F0007A2D36D016E040E0E1682F462046884745
:10060000B842054609D16C2F29D001208002E1684B
:10061000064320468847054604E06C2F1DD0FF2086
:1006200001300643002D28D028464138192803D828
:100630000120C00206432035204626602946029A42
:100640001646FFF775FD002810D001280BD0F61DC7
:10065000F008C0000830029055E74020E1E7802014
:10066000D5E70020D3E7361D02964CE7626828469E
:10067000A1689047206A401C44E7206AFEBD000044
:100680003844000030B505460B462A461C781078E1
:10069000521C5B1C002801D0A042F7D0002C03D0D4
:1006A000002802D06D1CEFE7284630BD30B5441C51
:1006B00003E00178401C00290DD08107F9D10B4BD4
:1006C000DD0104C8D11A91432940FAD0001B0A0663
:1006D00003D0C01E30BD001B30BD0A0401D0801EF7
:1006E00030BD0902FCD0401E30BD000001010101F7
:1006F000F8B5042A2CD3830712D00B78491C037059
:10070000401C521E83070BD00B78491C0370401C01
:10071000521E830704D00B78491C0370401C521EE4
:100720008B079B0F05D0C91ADF002023DE1B08C9E9
:100730000AE0FFF78FFDF8BD1D4608C9FD401C46C5
:10074000B4402C4310C0121F042AF5D2F308C91A72
:10075000521EF0D40B78491C0370401C521EEAD480
:100760000B78491C0370401C012AE4D409780170FD
:10077000F8BD01E004C0091F0429FBD28B0701D595
:100780000280801CC90700D00270704700290BD07E
:10079000C30702D00270401C491E022904D38307FC
:1007A00002D50280801C891EE3E70022EEE70022CA
:1007B000DFE70000F8B507460B46394619438907BD
:1007C00013D1164CE601042A0FD302CB0D1B8D4327
:1007D000354202D102C0121FF5E7CBB20370401CB4
:1007E000521E002B13D0090AF7E7002A14D01978FB
:1007F000521E5B1C0170401C002908D0002A0BD03F
:100800001978521E5B1C0170401C0029EDD1002A92
:1008100002D01146FFF7C9FF3846F8BD01010101BA
:10082000002203098B422CD3030A8B4211D30023ED
:100830009C464EE003460B433CD4002243088B42C7
:1008400031D303098B421CD3030A8B4201D3944654
:100850003FE0C3098B4201D3CB01C01A5241830947
:100860008B4201D38B01C01A524143098B4201D301
:100870004B01C01A524103098B4201D30B01C01A2C
:100880005241C3088B4201D3CB00C01A52418308A6
:100890008B4201D38B00C01A524143088B4201D3D3
:1008A0004B00C01A5241411A00D201465241104633
:1008B00070475DE0CA0F00D04942031000D34042A8
:1008C000534000229C4603098B422DD3030A8B42DE
:1008D00012D3FC22890112BA030A8B420CD389017C
:1008E00092118B4208D3890192118B4204D3890162
:1008F0003AD0921100E08909C3098B4201D3CB01A0
:10090000C01A524183098B4201D38B01C01A524154
:1009100043098B4201D34B01C01A524103098B4258
:1009200001D30B01C01A5241C3088B4201D3CB0043
:10093000C01A524183088B4201D38B00C01A524126
:10094000D9D243088B4201D34B00C01A5241411AFD
:1009500000D20146634652415B10104601D340422B
:10096000002B00D54942704763465B1000D34042DC
:1009700001B50020C046C04602BD704770477047B1
:1009800070B5044685690068C10601D5302600E0CF
:100990002026C00707D070BD62683046A168904726
:1009A000206A401C20626D1EF6D570BD70B50446ED
:1009B00085690078C00707D170BD6268A1682020F2
:1009C0009047206A401C20626D1EF6D570BD0968F4
:1009D0004A0501D540B27047C905FCD500B2704741
:1009E00009684A0501D5C0B27047C905FCD580B277
:1009F0007047FFB504460D4681B024300090216851
:100A0000880604D51022E0699143216000E00120AE
:100A1000A84201DD471B00E000270498A1697A196C
:100A20001018081AA0612078C00602D42046FFF7EB
:100A3000A7FF002608E003986268A168805D9047E0
:100A4000206A401C761C206204988642F3DB2078E2
:100A5000C0060AD52046FFF793FF06E06268A1684A
:100A600030209047206A401C206238467F1E0028B4
:100A7000F4DC07E000986268A168405D9047206A56
:100A8000401C206228466D1E0028F3DC2046FFF73C
:100A90008DFF2078000602D5022005B0F0BD0120B0
:100AA000FBE711680268006A530501D5087009E088
:100AB000D30501D5088005E0130602D5C21705C18C
:100AC00000E008600120704701694A1C0261087853
:100AD000704700B58FB0029100210591054901933F
:100AE00079440391114604906846FFF707FD0FB063
:100AF00000BD0000E5FFFFFF0A681070521C0A608D
:100B000070470CC908399A4202D2531C0B6010700E
:100B1000704710B54369002B02D0C046C04601E0C3
:100B2000FFF78CFC012010BD1278014624310A70B9
:100B300000224A700122ECE711680022D243E8E764
:100B4000F7B50446154686B02B487844002703C8FD
:100B50003E460090019111E007986A467100415AA3
:100B600002A800F0E8FC411C07D02178890603D5D3
:100B7000E269391891420ED83F18761C2078800619
:100B800002D5E069B84206DDAE42E5DB07987100A8
:100B9000405A0028E0D1A069C01BA0612046FFF7A1
:100BA000EFFE154878445A3803C8009000200191A0
:100BB00016E041006A460798415A02A800F0BBFCC3
:100BC0000590401C0AD0002505E0626802A8A168D3
:100BD000405D90476D1C05988542F6D30498401CF3
:100BE000B0420490E5DB206AC01920622046FFF77E
:100BF000DDFE09B0F0BD00001E3E0000F7B5D21DBD
:100C00000025D20815A6D200F52905CA11D0002A60
:100C100005DA00214042914111A60A4608E00099F8
:100C200009688B0701D50FA602E0490701D50EA67A
:100C300001251146009F0024243704E000F0AEF89F
:100C400030323A55641C02460A43F7D12B463246ED
:100C500021460098FFF7CDFEFEBD00000000000019
:100C60002D0000002B0000002000000070B504469D
:100C70000021243408E05507D2086D0F3035655443
:100C80005D072A43DB08491C15461D43F3D1046860
:100C9000002310A2250708D5A40601D4002904D0FA
:100CA000C46901230CA2641EC461FFF7A2FE70BDDB
:100CB00010B5044621461068FFF792FE0023024655
:100CC0002046FFF7D3FF10BDD21DD108C9000CC9C3
:100CD000CCE700000000000030000000F8B50F462F
:100CE0000188090502D5224C7C4402E0204C7C445A
:100CF0000E3405460021243508E016071209360F88
:100D0000A65D6E541E0732431B09491C16461E433E
:100D1000F3D1224604780023240705D5702F06D08E
:100D2000002901D002231132FFF763FEF8BD012331
:100D30001032F9E770B504460D4621461068FFF7FA
:100D40004FFE0023024629462046FFF7C7FF70BD2D
:100D5000D21DD308DB000CCBC0E730B403682024DD
:100D60001268234303600823C36130BC0023B5E746
:100D7000883C000001468008081A02091018020A7F
:100D80001018020C1018C008820012185200891A9C
:100D900001E0401C0A390A29FBD270470B4670B5A6
:100DA000024689078008084319469D08141AA9417C
:100DB00025090807054308092C194841250A010699
:100DC0000D43010A2C194141200C0D0428430D0C40
:100DD00000194D41002140194D41C00869070843E1
:100DE000E908840F8D002543840024184D412419FF
:100DF0006D41121BAB4107E00925ED432C1152193F
:100E000063410024401C61411C460A250026551BF5
:100E1000B441F1D270BD00007047FFB50C461E46CC
:100E20008FB003CA089009914F007D0D00D16D1E4F
:100E3000002108460020C0460321099A8905084080
:100E4000002A03DA8200801840080840800D01283B
:100E50000A9002DD0020C0430A90089807430DD095
:100E6000F048F149281848430714189800281DD065
:100E70007542291E1DDD0A9842421BE01898012880
:100E800002D00020302104E00020F24305E021548C
:100E9000401CB042FBDB30460022189B002121544D
:100EA0000F998B600A60486013B0F0BDBD1B6D1CCC
:100EB000DFE70A9A002900DA69420BA800F0CAFBB2
:100EC0000BAB07CB03AB07C30899099800F02EFCC6
:100ED0006B4607C30146D5480918002D00910BDD6C
:100EE000D24903980A9A49424018002303A9039063
:100EF000684600F08BFE08E003990A9A0023081860
:100F000003A90390684600F02BFE6B4607C300045C
:100F1000000C03D00020C043410800E01046189A9E
:100F2000002A03D00022009215461EE0751E05D44B
:100F3000FFF734FF303262556D1EF9D501220843A8
:100F4000079602D000227F1C04E02078302801D1CF
:100F500000227F1E002A069787D01EE0112D07DA97
:100F6000FFF71CFF303262556D1C02460A43F5D173
:100F7000084303D00098002819D00EE00021681E15
:100F800005E0235C625C63542254401E491C81428C
:100F9000F7DBA81B401E07950690079A18990020BA
:100FA000A0540F98079B069A81600CC07CE711261D
:100FB0000020189059E7D21DF0B50D460446D1081F
:100FC00093B0C90003C90C900D9103F00FFB0246CA
:100FD0000D98C00F01D02D2007E02068810701D5B2
:100FE0002B2002E04007C00F4001032A0F9001D0E0
:100FF000072A05DB03462946204600F0E7FA0EE102
:101000002078800601D5E76900E006272846652D8F
:1010100004D0662814D0672D69D12DE00020112F4F
:10102000009001DB112300E07B1C0CAA03A910A88F
:10103000FFF7F3FE1199002610987D1C0E9142E0F7
:1010400001203B460CAAC0070B900120009003A989
:1010500010A8FFF7E2FE119D1298109900260028B3
:101060000E9501D1781C0D18781B02D446427D1CC8
:10107000761EE81B00903AE0012F00DA01270020DD
:10108000112F009001DD112300E03B460CAA03A9BB
:1010900010A8FFF7C2FE11993D46109800260E9148
:1010A000217809070BD40E99A94200DA0D4603A94D
:1010B000012D04DD4A19203AD27F302A06D0B842E9
:1010C00001DA011D04DA012100910FE06D1EEFE746
:1010D000002802DC86192D1A03E0411CA94200DD1C
:1010E0000D46801B401C00900120C0070B9020780B
:1010F000000705D40098A84202DB0020C0430090FE
:1011000069460020C8720B98012102AF0337C90756
:10111000884225D0022010902B2011900B98002897
:101120000BDA40420B902D20119006E00B98FFF750
:1011300021FE30317F1E0B9039701099481E002916
:101140001090F3DC0B980028F0D111987F1E3870B6
:101150002088000501D5452000E065207F1E3870FD
:1011600001A8C01BC01D0B900F98002800D00120C3
:1011700041190098C01709180B980818A169081A96
:10118000401EA0612078C00602D42046FFF7F8FB7D
:101190000F98002805D06268A1689047206A401C1B
:1011A00020622078C00625D52046FFF7E9FB21E024
:1011B000002E07DB0E98B04204DD03A86268805D54
:1011C000A16802E06268A16830209047206A761C1E
:1011D000401C20620098401E002800900AD100F0B8
:1011E000F1F9C06862680168405CA1689047206AB4
:1011F000401C206228466D1E0028D9DC07E062688A
:101200003878A1687F1C9047206A401C20620B99A7
:10121000481E00290B90F2DC2046FFF7C7FB032095
:1012200042E6000001FCFFFF104D0000E1DFFFFF80
:10123000D21DF0B504460D46D0088DB0C0004668FA
:1012400007683146384603F0D1F90246F00F01D065
:101250002D2307E02068810701D52B2302E04007FA
:10126000C00F43016846002B037001D0012000E04D
:101270000020032A0A9001D0072A04DB29462046D1
:1012800000F0A4F92DE12078800601D40D2500E0BE
:10129000E5697000400D0D2D01904BDA300D0021F5
:1012A0000B9008460020C046032189050840002E07
:1012B00005DA82008018C20F10184010084080150F
:1012C000012801DD0020C043A9000023182906D30E
:1012D0009C460A460123183A1B07D34003E001222B
:1012E0001205CA4094460C31202902D33A462039CF
:1012F00000E032468A40002802DD002A06D119E0CB
:10130000002817D10121C9078A4213D31946634621
:101310007F185E41002806D10120C007824202D119
:10132000084687439E430B98310D814202D00198B5
:10133000401C01902088000502D57149794402E0E3
:101340006F49794419396B460A9830221A540A9821
:101350000A7C401C1A54401C0A900198002801DCA9
:10136000302000E031201872019A0120002A02D0BA
:10137000644BD21804E072003A4302D0614A521C16
:101380000192002D02DC2278120703D56A462E2036
:10139000507202200022864694460CE03203360149
:1013A000120F6D1E8B5C02AA13546246521C401C25
:1013B0009446052A01DA002DF0DC002202AE08E096
:1013C0003B0F3F01CB5C521C6D1E3354401C082A5E
:1013D00001DA002DF4DC23689A0601D511E0401EE5
:1013E000704504DD3218203AD27F302AF7D0002829
:1013F00007DD3218203AD27F2E2A02D11A0700D4F4
:10140000401E002D03DD3E223254401C6D1E497CDF
:1014100031540199401C002906DA2D21471C315412
:1014200001984042019003E02B21471C3154019860
:101430007D21C900884206DBFFF7FCF93030F0550A
:101440007F1C019101E0642808DB01986421FFF70B
:10145000F1F93030F0557F1C019101E00A2806DBDC
:1014600001980A21FFF7E6F93030F0557F1C01980A
:101470000A21FFF7DFF93031F1550A98A1697F1C85
:101480007A191018081AA0612078C00602D42046E4
:10149000FFF776FA216A6E460A980818206204E07F
:1014A00062683078A168761C90470A98401E0A90BE
:1014B000401CF5D12078C00602D52046FFF760FA1F
:1014C00002AE09E03078761C3E280DD06268A16833
:1014D0009047206A401C20627F1EF3D22046FFF70F
:1014E00065FA0DB00320F0BD206A4019206203E0C8
:1014F0006268A168302090476D1EEDD3F8E70000C8
:101500006F36000001FCFFFF10B54369002B02D0CD
:10151000C046C04601E0FFF713FB012010BD128852
:101520000146243182840022C2840122ECE7116842
:101530000022D243E8E770B516460C46054600F097
:1015400039F80368FF200230C05C012807D0FF2C67
:101550000ED8185D00280BD001202C7070BDFF3311
:101560003246214608331868C3182846984770BD8C
:101570000020C04370BD754600F0A0FBAE460500DC
:1015800069465346C008C000854618B020B5FEF72E
:1015900087FE60BC00274908B6460026C0C5C0C506
:1015A000C0C5C0C5C0C5C0C5C0C5C0C5403D490057
:1015B0008D46704710B500F005F8001D10BD00BF46
:1015C0007132000000487047EC090020F8B51F4652
:1015D000044601230068DB02032601461840072A5F
:1015E00005DB002801D017A506E017A504E00028B8
:1015F00001D016A500E016A5102081432160A06946
:10160000C01E002FA06101D0401EA0612046FFF740
:10161000B7F9002F09D038466268A1689047206A60
:10162000401C2062C01C206206E0206AFAE7626863
:101630002878A1686D1C9047761EF8D22046FFF7E7
:10164000B5F9F8BD4E414E006E616E00494E460040
:10165000696E6600F7B516468AB0334878446C4622
:1016600003467C33C06F5A689B680DC42E4878448B
:10167000763003AC0DC80DC43720C00108183721DF
:101680001B30FFF7D7F805460C46803D1B3C02D5C2
:101690006442012000E000200027099010E0E007EC
:1016A0000CD00C2020497843794432464C394118FB
:1016B0006846012300F054FA6B4607C364107F1C90
:1016C000002CECD1184F7F442E3F16E0E80712D0D3
:1016D0002001C0190EC80691089307920068F042D5
:1016E00001D1981908903246012306A903A800F0F9
:1016F00037FA03AB07C36D10641C002DE6D10998BF
:10170000002806D032466946012303A800F07EFA7D
:1017100005E001233246694603A800F021FA0A9B3E
:1017200007C30DB0F0BD0000643300000346400065
:101730000A4610B5400D0BD00121C9070F24A402A1
:1017400000191C0364082143540D2143D20207E011
:1017500000210120F2E7D40F490021435200401E2E
:101760000029F8DADB0FDB07184310BDFFB50D4683
:10177000144685B04868516802F012FF009101904C
:10178000A868A16802F00CFF02910390A868616844
:1017900002F006FF029A12188242029201D2012040
:1017A00000E00020019A0B18D2180028019202D004
:1017B0008A4202D903E08A4201D2012000E00020DF
:1017C0000099081800906868A16802F0E9FE029A82
:1017D00012188242029201D2012000E00020019AF8
:1017E0000B18D2180028019202D08A4202D903E0D5
:1017F0008A4201D2012000E00020009908180090E0
:101800002868216840004900400849084018FA4902
:10181000471814E001994000C90F0843009001984F
:1018200002994000C90F08430190029803994000B3
:10183000C90F08430290039840007F1E0390009850
:101840000028E7DA0898002801D0EC4E00E00026D6
:10185000B74201DA012000E00020002804902AD0DD
:10186000F71BF806C00E15D0029B2021091A039A17
:101870008B401A430392029A019BC2408B401A4349
:101880000292019A009BC2408B4000991A43019238
:10189000C14000917B110DD06F460320C11A03D5C2
:1018A00000218200B95003E08A008100BA587A50C2
:1018B000401EF3D5374603980299002800D0012036
:1018C000014308980291002808460CD0002800D057
:1018D00001200199019A490508430121D20AC90250
:1018E000D202019200E001210E9B0122D207012BBE
:1018F00002D0002B03D013E0002807D120E0904253
:1019000004D890420CD1019B0B4209D0019B59187D
:10191000019105D10099491C009101D17F1C0092D1
:1019200000280DD0102108460020C0460498002849
:1019300006D00F98002803D0082108460020C04692
:1019400028682168019B009A4840C10F0598C90783
:1019500039430EC009B0F0BDFFB587B0099A0898A9
:1019600008995368926840688968964600220393F4
:1019700017469446089A12685300099A5B08126841
:10198000520052089A1A9E4BD4180A9A002A01D083
:10199000352200E0402206920022012315460492DF
:1019A000DB07059324E0002D05D175460346039E11
:1019B0004D1BB34109D375466646039B491B049DE5
:1019C0009841059B7519AC465F4163463B4308D07F
:1019D000059B049EDD0776082E435B08049605935D
:1019E00001E0521E641EC50FED0749184041521C0C
:1019F000069B9A42D7DB002D04D17546039A6B1AD9
:101A0000824101D203200CE0039A0B466B40424016
:101A1000134303D0014303D0012002E0022000E081
:101A20000020614601910021009702910A99002946
:101A300005D0614640020143704B019102E08007EE
:101A4000002302909C4201DA012000E00020070000
:101A50003AD01A1BD006C00E15D0029D2021019C41
:101A6000091AC5408C402543029C8C4000D00124BB
:101A70002543019C0295009DC4408D4000992C4354
:101A80000194C140009154111DD06D4602210022E5
:101A900002290CD10320001B07E0002804DB86008C
:101AA000AE59002E00D00122401C0328F5DB081B94
:101AB00002D588002A5004E08000285810438A008C
:101AC000A850491EE3D51C460A98002802980CD05D
:101AD000002800D001200199019A490508430121FD
:101AE000D20AC902D202019200E00121109B012218
:101AF000D207012B02D0002B03D013E0002807D11E
:101B00001FE0904204D890420CD1019B0B4209D0B7
:101B1000019B5918019105D10099491C009101D1EF
:101B2000641C009200280CD0102108460020C046FA
:101B3000002F06D01198002803D008210846002065
:101B4000C04608980999019A009B006809684840B6
:101B5000C10F0798C907214382600AC00BB0F0BDCE
:101B600000B585B0019300920A460146002302A801
:101B7000FFF7FCFD02A807C805B000BDFFB50A4687
:101B80001F4685B00799019301230091014602A8E1
:101B9000FFF7ECFD02990398049ECA0F4900D20793
:101BA00000920F22490892028C1A0021002800DBC3
:101BB0000C46450013486D08844214D3079A002A46
:101BC00004DA441E0026104DF64302E004460D469A
:101BD0000E46102108460020C046002F03D00421E5
:101BE00008460020C0462005E90A0843009908433A
:101BF0006905F20A1143ADE602C0FFFF013C000097
:101C0000FF3F0000FF070000FFFFFF7F00B585B02A
:101C1000019300920A460146002302A8FFF79CFEAA
:101C200002A807C8A8E7FFB50A461F4685B007996E
:101C3000019301230091014602A8FFF78DFE02994E
:101C40000398049ECA0F4900D20700920F22490848
:101C500092028C1A0021002800DB0C464500114836
:101C60006D08844214D3079A002A04DA441E002621
:101C70000D4DF64302E004460D460E46102108467F
:101C80000020C046002F03D0042108460020C04693
:101C90002005E90A0843009908436905F20A11433F
:101CA00058E60000FF070000FFFFFF7F10B5044665
:101CB000C046C0462046FEF7C7FA10BD0048704730
:101CC000CC090020024670B50A4392072AD11E4D66
:101CD000EE0104C808C9541B9443344017D0D0B255
:101CE000D9B2401A2106014310D190B299B2401ADC
:101CF000210401430AD110021902000A090A401AFC
:101D00002102014302D1100E190E401A70BD9A42F1
:101D1000DFD010BA19BA884201D9012070BD002065
:101D2000C04370BD02780B78401C491C002A09D0C2
:101D30009A4207D102780B78401C491C002A01D036
:101D40009A42EFD0D01A70BD01010101014918205B
:101D5000ABBEFEE72600020070470000F0B5C5B03C
:101D600004007CD0152040012718D1480021397685
:101D7000201880210646FEF718FDCEA000F096FF41
:101D800025460120A035A872022000907D231B016A
:101D9000D5A2D6A1204602F0CEFC002808D17D2095
:101DA000C00001F0B9F80099481E00900029EDDC50
:101DB0002046B03000990490002904DACDA000F04C
:101DC00075FF012075E0FF20F53001F0A5F8D5A0E2
:101DD00000F06CFFDD4BDEA2E1A1204602F0ABFC7F
:101DE000002812D0FF20F53001F096F8DFA000F0B7
:101DF0005DFF1D2000907D231B01E9A2EBA1204681
:101E000002F099FC00281DD10AE0022038767F22DA
:101E100030460499FEF7CEFC0920A872E6A020E027
:101E20007D231B01EFA2E1A1204602F084FC0028E3
:101E300008D17D20C00001F06FF80099481E009085
:101E40000029D8DC009800280EDA032038767F229B
:101E500030460499FEF7AEFC0920A87200E025E1A7
:101E6000E3A000F023FF21E1FF20F53001F054F85A
:101E70001D2000907D231B01E7A2EAA1204602F06D
:101E80005AFC002811D17D231B01E9A2E5A12046BF
:101E900002F051FC002808D17D20C00001F03CF880
:101EA0000099481E00900029E4DC0098002809DA17
:101EB000042038767F2230460499FEF77BFC092007
:101EC000A872F3E0FF20F53001F026F89F4B86A2C0
:101ED000DAA1204602F02FFCFF20F53001F01CF8BB
:101EE0007D231B0180A2D9A1204602F024FCC8203A
:101EF00001F012F8DD4B7CA2DDA1204602F01BFCB4
:101F0000002835D07D20C00001F006F87D231B019C
:101F100075A2DBA1204602F00EFCC82000F0FCFFF9
:101F20007D231B0170A2D9A1204602F004FCC82029
:101F300000F0F2FF7D231B016BA2D9A1204602F025
:101F4000FAFBC82000F0E8FF7D231B0166A2D8A1A0
:101F5000204602F0F0FBFF20F53000F0DDFF7B4B68
:101F600061A2D7A1204602F0E6FB002802D007E0DC
:101F700005209EE7D6A10498FEF784FB00287BD0BD
:101F8000FF20F53000F0C8FF0220A8722346C101EF
:101F90008633D3A205A8FEF733FA6C4B52A205A9EB
:101FA000204602F0C8FB002868D0FF20F53000F082
:101FB000B3FFA879002834D00320A8727D231B0129
:101FC00049A2CDA1204602F0B6FB642000F0A4FF98
:101FD0007D231B0144A2D0A1204602F0ACFB64206B
:101FE00000F09AFF7D231B013FA2D2A1204602F000
:101FF000A2FB642000F090FF7D231B013AA2D5A133
:10200000204602F098FB642000F086FF4F4B36A27A
:10201000D9A1204602F08FFB002831D0C82000F063
:102020007BFF0420A8722346A82144206633095B65
:10203000005B2246039346326B4607C3FF21231DF4
:10204000D3A2013105A8FEF7DBF9884BDDA205A973
:10205000204602F070FB00281BD00520A872192131
:10206000012049016118C876211DDBA000F01EFE89
:10207000002045B0F0BDFFE707201AE7082018E769
:1020800009243C767F2230460499FEF793FBAC721C
:102090000CE00A2038767F2230460499FEF78AFB4E
:1020A0000920A872D7A0049900F000FE0120E0E703
:1020B000B90200005B494E464F5D205374657020A5
:1020C000313A2054657374696E67206D6F64756C66
:1020D0006520636F6D6D756E69636174696F6E2ED7
:1020E0002E2E0D0A000000004F4B000041540D0A37
:1020F000000000005B4552524F525D204D6F6475E9
:102100006C65206E6F7420726573706F6E64696E9B
:102110006720746F20415420636F6D6D616E64732E
:102120000D0A00005B494E464F5D205374657020D8
:10213000323A20436865636B696E672053494D20CE
:10214000636172642E2E2E0D0A00000088130000B9
:102150002B4350494E3A205245414459000000005B
:1021600041542B4350494E3F0D0A00005B494E46F7
:102170004F5D205374657020333A20436865636B6C
:10218000696E67204E6574776F726B205265676960
:102190007374726174696F6E2E2E2E0D0A0000002A
:1021A0002B435245473A20302C31000041542B43F9
:1021B0005245473F0D0A00005B4552524F525D2089
:1021C00053494D2043617264204572726F72206FD3
:1021D000722050494E2052657175697265640D0A0E
:1021E000000000002B435245473A20302C350000B8
:1021F0005B4552524F525D204E6574776F726B2073
:10220000526567697374726174696F6E20466169A3
:102210006C65640D0A0000002B43475245473A2085
:10222000302C310041542B43475245473F0D0A00A3
:102230002B43475245473A20302C350041542B431D
:10224000474143543D302C310D0A000041542B438B
:102250004744434F4E543D312C224950222C226991
:102260006E7465726E6574220D0A000010270000FE
:1022700041542B43474143543D312C310D0A00005A
:1022800041542B4353510D0A0000000041542B438D
:102290004D515454444953433D302C36300D0A00BF
:1022A00041542B434D51545452454C3D300D0A007E
:1022B00041542B434D51545453544F500D0A000078
:1022C00041542B434D51545453544152540D0A0020
:1022D0002B434D51545453544152543A2030000032
:1022E00041542B434D515454414343513D302C22D2
:1022F0002573222C310D0A0041542B4353534C4378
:1023000046473D2273736C76657273696F6E222C3B
:10231000302C340D0A00000041542B4353534C43DE
:1023200046473D22617574686D6F6465222C302CC0
:10233000300D0A0041542B4353534C4346473D2232
:10234000656E61626C65534E49222C302C310D0A4A
:102350000000000041542B4353534C4346473D2259
:1023600069676E6F72656C6F63616C74696D65220D
:102370002C302C310D0A000041542B434D51545444
:1023800053534C4346473D302C300D0A00000000AB
:1023900041542B434D515454434F4E4E4543543DAD
:1023A000302C227463703A2F2F25733A2564222C27
:1023B00025642C312C222573222C222573220D0A10
:1023C000000000002B434D515454434F4E4E4543A3
:1023D000543A20302C3000005B494E464F5D204D72
:1023E00051545420436F6E6E656374656420537559
:1023F000636365737366756C6C7920746F202573E5
:102400000D0A00005B4552524F525D204D5154540D
:1024100020436F6E6E656374204661696C65642E3F
:1024200020526573706F6E73653A2025730D0A0034
:10243000F8B5040025D025460821A035124EA97212
:10244000334612A212A1204602F075F9FF27F53794
:10245000384600F061FD33460CA212A1204602F07E
:102460006AF9384600F058FD334608A211A120460B
:1024700002F061F9002019214901A8726118C8769B
:10248000F8BD0120F8BD0000881300004F4B00008C
:1024900041542B434D515454444953433D302C3601
:1024A000300D0A0041542B434D51545452454C3D7C
:1024B000300D0A0041542B434D51545453544F5046
:1024C0000D0A000010B51346040021D000291FD0CA
:1024D000002B1DD02160A6221946201DFEF708F909
:1024E0000020AA210855AC2108510521C901611815
:1024F000086319214901611848768876C876C8763C
:10250000204602F0B2F803A000F0D0FB002010BD7E
:10251000012010BD5B494E464F5D204137363030BB
:10252000204D51545420496E697469616C697A6513
:10253000640D0A00002803D0192149014018C07E0B
:1025400070470000F8B504004DD01920400127184D
:10255000F87E002847D0206801F008FE020042D033
:102560000520C00126182048316B401A824200D94C
:1025700002462546B0354919206801F03BFE316B13
:10258000081800213063415518A12846FEF77AF853
:1025900000281BD019A12846FEF774F800901CA152
:1025A0002846FEF76FF8009900290AD000280DD0C0
:1025B000AC200359002B06D0294614A0326B984753
:1025C00001E0002802D0204602F04FF814A128466E
:1025D000FEF758F8002806D00020F876AA21085502
:1025E000204602F042F8F8BDFF0100002B434D5198
:1025F0005454525853544152543A00002B434D51B5
:10260000545452585041594C4F41443A0000000034
:102610002B434D5154545258454E443A000000004B
:102620002B434D515454434F4E4E4C4F53543A004C
:10263000FFB5C1B0040063D04298002860D0439831
:1026400000285DD0192040012018C07E002859D0F4
:1026500025460720A035A8724298FEF727F80346C2
:10266000FF2132A201316846FDF7CAFE354B36A282
:102670006946204602F05FF82746B0370526002855
:1026800042D0304B31A22046429902F054F8002843
:102690003DD0642000F040FCFF212DA201316846AE
:1026A000449BFDF7ADFE274B27A26946204602F06A
:1026B00042F800282ED0204601F0D7FF2068449A27
:1026C000439901F0B2FD1F4A20A1204602F05CF8B8
:1026D000002822D0642000F01FFCFF2122A201313B
:1026E00068464A9BFDF78CFE164B25A2694620469C
:1026F00002F021F8002813D0AE72002045B0F0BDE2
:102700000120FBE70420F9E7394621A00AE0394619
:102710002DA007E0394638A004E0394644A001E086
:10272000394650A000F0C2FAAE72E9E741542B439B
:102730004D515454544F5049433D302C25640D0A9B
:1027400000000000881300003E0000004F4B000016
:1027500041542B434D5154545041594C4F41443DE9
:10276000302C25640D0A000041542B434D51545424
:102770005055423D302C25642C36300D0A000000A7
:102780002B434D5154545055423A20302C300000C8
:102790005B4552524F525D205075626C69736820E0
:1027A0004661696C65643A2053657420546F7069A2
:1027B00063204C656E6774682E20526573703A20F2
:1027C00025730D0A000000005B4552524F525D20F8
:1027D0005075626C697368204661696C65643A2063
:1027E00053656E6420546F7069632E205265737058
:1027F0003A2025730D0A00005B4552524F525D206E
:102800005075626C697368204661696C65643A2032
:10281000536574205061796C6F6164204C656E67FC
:1028200074682E20526573703A2025730D0A0000DB
:102830005B4552524F525D205075626C697368203F
:102840004661696C65643A2053656E642050617915
:102850006C6F61642E20526573703A2025730D0AE7
:10286000000000005B4552524F525D205075626C73
:10287000697368204661696C65643A2045786563D0
:10288000757465205075622E20526573703A20254C
:10289000730D0A00FEB507461C460E461546104647
:1028A000FDF704FF0021034601912A4600943146BA
:1028B0003846FFF7BDFEFEBD002801D08030C16262
:1028C0007047000030B5C1B0040020D000291ED0F0
:1028D000192040012018C07E00281AD02546062065
:1028E000A035A8720B460092FF210BA2013101A86E
:1028F000FDF786FD0E4B0FA201A9204601F01BFF3C
:1029000005210028A97202D0002041B030BD01206D
:10291000FBE70420F9E7000041542B434D51545488
:102920005355423D302C222573222C25640D0A007C
:10293000881300002B434D5154545355423A2030D4
:102940002C30000070B5040012D00D208001251835
:1029500002212970201DFFF701FA01460320000221
:102960002018002906D004212970C16C491CC164BB
:10297000002070BD032129700021C1640A4605A111
:10298000201DFFF79FFF07A1204600F0B9F80120A6
:1029900070BD000075617634672F636F6D6D616E79
:1029A000640000006F6E6C696E65000070B5AAB0BF
:1029B0000E46040035D0002E33D00D218901651854
:1029C0000321002026600902287061184864886489
:1029D000C864A82218496846FDF73CFC3F2217A1AD
:1029E0006846FDF7E7FE10A81F2221A10230FDF77F
:1029F000E1FE18A81F2220A10230FDF7DBFE20A86F
:102A00001F2221A10230FDF7D5FE6A463146201D66
:102A1000FFF758FD002807D01EA000F047F904205A
:102A2000287000202AB070BD2449201DFFF744FF04
:102A300001202870F6E70000B4480008643366649B
:102A400030666435396564313462366439666530C0
:102A50003337633065663162663636322E73312E17
:102A600065752E686976656D712E636C6F7564008F
:102A7000756176346700000055617634675F74696C
:102A80006D656C617073650073746D33325F756171
:102A9000763467005B4552524F525D204661696C47
:102AA000656420746F20696E6974204D5154542000
:102AB0006472697665720D0A0000000035470008EF
:102AC00010B500280FD000290DD00D2292018218D8
:102AD0001278032A07D10A46002305A1001DFFF73B
:102AE000D9FE002801D0002010BD012010BD00003B
:102AF00075617634672F73656E736F720000000026
:102B000010B500280FD000290DD00D229201821897
:102B10001278032A07D10A46012305A1001DFFF7F9
:102B2000B9FE002801D0002010BD012010BD00001A
:102B300075617634672F73746174757300000000DB
:102B4000F8B5060019D000F0D1FA05460D20800135
:102B500037183878032109027418030001F038FD92
:102B6000050D040D0E354400A06C291A1F48814242
:102B700003D33046A564FFF7E5FEF8BD301DFFF72F
:102B8000E1FC301DFFF7D6FC00281BD0606C291A31
:102B900016488142F1D37D21C90028466564FDF7BE
:102BA0003FFEE16C0346009111A280211748FDF71A
:102BB00027FC164916A000F079F814493046FFF7B3
:102BC0007FFFF8BD04203870F8BDA06C1949281AA1
:102BD0008842F9D3301DA564FFF72AFC7D20C00090
:102BE00000F09AF90120EEE70020ECE788130000DE
:102BF0007B22757074696D65223A256C752C22658F
:102C000072726F7273223A256C757D004C0700203A
:102C10005B494E464F5D205075626C697368696E02
:102C2000672053656E736F7220446174613A20258A
:102C3000730D0A003075000010B5024800F0BEF8B0
:102C400010BD00000807002010B5034800F0B6F8DA
:102C5000024800F0B3F810BDC40600208006002032
:102C600010B504460068054940181421FDF7D8FD49
:102C7000800020640248E06310BD0000F8FFFDBF43
:102C80000000024030B5056C0124AC40C56B6C609F
:102C9000046863604368102B036803D09960006880
:102CA000C26030BD9A600068C16030BD0FB470B5BD
:102CB000144D0026144C05E0002D03D12670134856
:102CC00000F013FD2078002801D06D1EF4D20125FC
:102CD0006D0205AB29460E48049AFDF775FB0028E6
:102CE0000CDDA84200DD28460121217082B208498E
:102CF000064800F087FF002800D0267070BC08BC92
:102D000004B01847FFFF0F00100000209C000020B7
:102D1000CC07002000680349884202D10249002004
:102D200008707047003801401000002072B6FEE7BE
:102D300030B5014620314B780022022B04D0042309
:102D400083630A70012030BD03681C680E25AC4304
:102D50001C6003681C68640864001C600123056C27
:102D60001C46C06BAC4044604B700A70002030BD04
:102D700070B50024014620314A78022A03D004218C
:102D80008163012416E0026813680E25AB431360CB
:102D9000026813685B085B0013600122056C134630
:102DA000AB40C56B6B604A7000220A70416B002912
:102DB00000D08847204670BD806B7047F0B4C16B6F
:102DC0000D6801680C680422066C1346B3402B4260
:102DD0000DD063070BD50B689B0602D40B68934399
:102DE0000B60016C8A40C16B4A60C16A19E002271E
:102DF000B74002462F4001232032002F15D0A707ED
:102E000013D50C68A40604D40C680A25AC430C60E6
:102E10005370036C02219940C36B596000211170FB
:102E2000816A002916D0F0BC08470827B7402F4216
:102E300010D024070ED50C680E25AC430C60046C32
:102E40001946A140C46B6160836353700021117007
:102E5000016BE6E7F0BC704770B5040021D0022199
:102E60002046203005464170226811680E48A3684C
:102E70000140606826691843E36833431843636977
:102E80001843A3691843E3691843084310602046B8
:102E9000FFF7E6FE0021A163012068702970084653
:102EA00070BD012070BD00000FC0FFFFF8B50446E3
:102EB0008C46203001780025012909D001260670B2
:102EC00041780027012905D0077002252846F8BD62
:102ED0000220F8BD02214170A763206801684908FB
:102EE0004900016061462046FFF7CCFEE06A0028F9
:102EF0002068016802D00E22114306E00A22114325
:102F00000160206801680422914301602068016823
:102F100031430160DAE7000070B5044600F0E6F8DE
:102F20000546601C02D004480078241800F0DEF842
:102F3000401BA042FAD370BD00000020F8B500236A
:102F400003240125BAE02E469E40B44632407CD090
:102F50000E79B607B60F012E01D0022E17D1866862
:102F60002746B6465E00B74000967646BE43B64654
:102F7000CF68009EB740764637438760466867460D
:102F8000BE430F79FF06FF0F9F40374347600E791E
:102F9000F643B6070ED0C6682746B4465E00B6466E
:102FA000B7406646BE43B4468F687646B74066462D
:102FB0003743C7600E79B607B60F022E14D1DE086C
:102FC000B60036180096366A5F07B446FE0E0F2725
:102FD000B646B7406646BE43B4460F697646B7402C
:102FE00066463743009E376206682746B4465E0051
:102FF000B646B7406646BE430F79B446BF07BF0F1B
:103000007646B7406646374307604E68B603B60F4C
:1030100053D02D4FBE692E43BE61BE699F08F6078F
:10302000F60F2A4EBF00BE190096B6680F27B446A9
:103030009E07360FB646B7406646BE430927FF06D1
:10304000B446B84202D1002710E036E0204FB84223
:1030500001D101270AE01F4FB84201D1022705E044
:103060001D4FB84201D1032700E005277646B7403F
:1030700066463743009EB760184EB6684F68964361
:10308000FF0200D51643154FBE60FE684F68964399
:10309000BF0200D51643114FFE607E684F6896430D
:1030A000BF0300D516430D4F7E603E684F689643C0
:1030B000FF0300D51643094A16605B1C0A681646D2
:1030C000DE4000D03FE7F8BD0010024000000140A4
:1030D0000004004800080048000C004800040140BB
:1030E000002A01D081617047816270470148806881
:1030F00070470000000000200248816802788918AB
:10310000816070470000002010B506480168102259
:1031100011430160032000F007F800F027F80020B9
:1031200010BD00000020024070B504460D4D7D200A
:103130002978C000FDF774FB01460B480068FDF7D5
:103140006FFB00F0B9FA002809D1042C07D2002245
:103150002146401E00F02AF800206C6070BD01205E
:1031600070BD0000000000200C00002008B50848D9
:103170008169012211438161816911400091C26915
:1031800001040A43C261C0690840009008BD000004
:1031900000100240002805DBC106C90E012088404E
:1031A000014908607047000000E100E010B501F03F
:1031B00033FA10BDF8B50F46060059D03A4D2868CD
:1031C000C007C00FB84209D2286840084000384301
:1031D00028602868C007C00FB84249D13068334C16
:1031E00081070CD5400704D5606807210902084310
:1031F00060606068F0218843B1680843606030789F
:10320000C00726D0706801280ED0216802280ED091
:10321000890700292CDA6168890889000143616007
:10322000FFF764FF00900DE021688903F1E7890151
:10323000EFE7FFF75BFF0099411A1D48814201D972
:103240000320F8BD60680C2108407168890088423D
:10325000EFD12868C007C00FB8420BD928684008D2
:103260004000384328602868C007C00FB84201D02A
:103270000120F8BD3078400706D5606807210902B3
:103280008843F1680843606000F028F86168094AE3
:103290000906090F515CC840074908600320FFF781
:1032A00043FF0020F8BD0000002002400010024053
:1032B000881300009C4800080C00002004480549C1
:1032C00000684968044A4905490F515CC840704785
:1032D0000C00002000100240AC48000810B5104A55
:1032E00051680C200B4603400E48042B17D0082BC6
:1032F00015D18B020C4C1B0FE45CD26A0A4B1207EF
:10330000120F10339A5CC90305D500231946FCF748
:10331000D9FF214601E02046044901F041F910BDE2
:103320000010024000127A007C48000800093D00AD
:10333000FEB5040070D02078DC4DC0074AD0686824
:103340000007800F012807D068680007800F022857
:1033500009D16868C00306D5286880033AD560683B
:103360000028E7D036E06168012914D001208004EC
:10337000002901D0052914D02A68012109048A43B3
:103380002A602968814329606068002816D0FFF709
:10339000ADFE06460EE028680121090408432860B6
:1033A000F2E7296801432960F5E7FFF79FFE801BDC
:1033B00064286ED828688003F7D50BE0FFF796FEE7
:1033C000064604E0FFF792FE801B6428F1D82868C7
:1033D0008003F7D420780126800700283CDA68684B
:1033E0000007800F07D068680007800F022809D106
:1033F0006868C00306D42868800716D5E0680128ED
:103400000AD112E0E0680028286816D0304328600E
:10341000FFF76CFE074605E043E1FFF767FEC01BC0
:103420000228C6D828688007F7D52868F82188437D
:103430002169C900084328600EE040084000286068
:10344000FFF754FE074604E0FFF750FEC01B0228BA
:10345000AFD828688007F7D42078000722D5E06924
:103460000028686A0ED030436862FFF73FFE0746C7
:1034700004E0FFF73BFEC01B02289AD8686A800769
:10348000F7D50FE0400840006862FFF72FFE0746BF
:1034900005E09DE0FFF72AFEC01B022889D8686A74
:1034A0008007F7D4207804274007002860DA00203E
:1034B0000190E869C00008D4E969B8060143E961F0
:1034C000E969014001200091019079480168C9052E
:1034D00011D40168821511430160FFF707FE0090C7
:1034E00005E0FFF703FE0099401A642870D8704881
:1034F0000068C005F5D5A06801280AD0002801D0D1
:10350000052810D0286A400840002862286AB8437D
:1035100001E0286A30432862A068002812D0FFF733
:10352000E5FD00900AE0286A38432862F1E7FFF7DA
:10353000DDFD0099411A5F48814249D8286A800719
:10354000F5D50DE0FFF7D2FD009006E0FFF7CEFDC8
:103550000099411A574881423AD8286A8007F5D421
:103560000198002804D0E969012000078143E9613E
:103570002078C00635D5606901280CD0401D686BE5
:1035800023D038436863686B400840006863FFF7E6
:10359000ADFD064622E0686B38436863686B3043D4
:1035A0006863FFF7A3FD064604E0FFF79FFD801B5D
:1035B00002285BD8686B8007F7D5686BF8218843D1
:1035C000A169C900084368630BE0B8436863F4E786
:1035D0004CE0FFF78BFD801B022847D8686B800703
:1035E000F7D4206A00285ED069680907890F02298C
:1035F00042D0012636060228286805D0B04328604C
:10360000FFF774FD044633E0B0432860FFF76EFD1A
:10361000074604E0FFF76AFDC01B022826D8286889
:103620008001F7D4E86AE16A000900010843E86212
:10363000616AA06A084369683D2212049143084305
:103640006860286830432860FFF750FD044604E0B6
:10365000FFF74CFD001B022808D828688001F7D529
:1036600021E0FFF743FD001B022801D90320FEBD26
:1036700028688001F5D416E00128F8D06868E96A66
:1036800001221204636A02409A420AD10907E26ADF
:10369000090F914205D10F2189040840A16A88428F
:1036A00001D00120FEBD0020FEBD00000010024040
:1036B0000070004088130000094910B5401E884280
:1036C00001D9012010BD074C60610321081F00F0E3
:1036D000A3FF0020A06107202061002010BD000092
:1036E000FFFFFF0000E000E0704770B50446EFF315
:1036F0001080012181F3108821680A68C0239A4351
:103700000A6080F310882168886800250006002878
:1037100018DAEFF31080012282F310888A68802380
:103720009A438A6080F31088206F00280AD045638E
:10373000206FFFF7FDFA002804D0206FFFF73CFB55
:10374000202805D0522005532020E067002070BDBE
:10375000102080346060032070BD7047F8B50268A7
:103760000446D069116893689E4D06462E40254652
:103770008035002E71D09C4FDE07F60F0F40374387
:103780007ED0C70706D0CF0504D5012717626A6827
:103790003A436A60820708D5DA0706D02768022212
:1037A0003A626A6804273A436A60420708D5DA0732
:1037B00006D0236804221A626A6802231A436A60E8
:1037C000020709D520220A40324305D02368082287
:1037D0001A626B6813436B60020509D54A0107D56D
:1037E00001222368D2021A626B68202213436B60A5
:1037F0006A68002A39D0800606D5880604D5A16EED
:10380000002901D0204688476868216889684906F0
:1038100002D4282108422DD0204600F03AFD21682C
:103820008868400622D5EFF31080012282F31088C9
:103830008A6840239A438A6080F31088606F00286A
:1038400014D06A494163606FFFF792FA00280CD0E8
:10385000606F416B08E000E012E0830610D58B0634
:103860000ED5A16EA3E020468847F8BD2046FFF79D
:1038700074FFF8BD2046FFF770FF00206860F8BDB8
:10388000236E012B7ED1C3067CD5CB067AD51023BF
:10389000136222689068264640064036002848DABF
:1038A000616F086840680004000CE8D0378B8742DD
:1038B000E5D970838869202834D0EFF31080012186
:1038C00081F3108811681F01B943116080F31088DB
:1038D000EFF31080012181F3108821688A68520873
:1038E00052008A6080F31088EFF31080012181F389
:1038F000108821688A684027BA438A6080F310885C
:103900002020286000202066EFF31080012181F341
:10391000108821680A689A430A6080F31088606FF3
:10392000FFF706FA02206066308B718B401A81B275
:1039300034E0308B718B401A81B2708B00289ED09E
:1039400000299CD0EFF31080012686F310881668BA
:10395000FF272137BE43166080F31088EFF31080F5
:10396000012282F3108822689668760876009660B5
:1039700080F310882020286000202066A066EFF3E6
:10398000108000E00EE0012282F3108822681568A2
:103990009D43156080F31088022060662046FFF783
:1039A000A3FEF8BD030606D50B0604D5E16E00297B
:1039B00000D058E7F8BD4006FCD54806FAD52046A9
:1039C000EFF31081012383F31088146840239C4394
:1039D000146081F310882021C1670021C16600F0C6
:1039E00067F9F8BD0F08000020010004014000083D
:1039F00010B5040003D0E06F002802D007E00120DA
:103A000010BD002178200155204600F027F8242021
:103A1000E06720680168490849000160606A002881
:103A200002D0204600F025FA204600F073FC012861
:103A3000E6D0206841680122D202914341602068AB
:103A40008168082291438160206801680122114346
:103A50000160204600F072FA10BD0000F0B587B09A
:103A6000064614216846FCF7A2FE484F012035683F
:103A700047494004022303220024BD4248D1CD69B6
:103A80000543CD61CD69054005954D6905434D61FF
:103A900049696D46014005910C20039219C501202A
:103AA000049009206946C006FFF748FA39483A4DA4
:103AB000802711C52C60AC606F602020EC6028610D
:103AC000000268613448083DFFF7C6F9002801D0BC
:103AD000FFF72CF975676E622E48304D1438286058
:103AE0001020291D91C12C616C614002AC61E8611C
:103AF0002846FFF7B1F9002801D0FFF717F935671D
:103B0000002201211C206E62FFF750FB1C2038E0D0
:103B1000234FBD4237D18F690125AD032F438F61FC
:103B20008F692F4005974D6905434D6149696D4681
:103B30000140032005914002039219C50120049021
:103B400009206946C006FFF7F9F91248154D3C38BF
:103B500028601020AC6068602C616C61AC618020D2
:103B6000EC61E8602846FFF777F9002801D0FFF7FD
:103B7000DDF83567002201211B206E62FFF716FB7E
:103B80001B20FFF707FB07B0F0BD0000004400401A
:103B9000001002405800024080060020C4060020A9
:103BA000003801400807002070B580231B58202BE7
:103BB00001D0022070BD00290BD0002A09D00124B9
:103BC00083682403A34206D10369002B03D1CB07EA
:103BD00001D0012070BD00230366046863681B02E6
:103BE0000BD5EFF31083012585F310882568012696
:103BF000B6063543256083F3108800F023FC70BDC2
:103C00007047704770B50446C06F202801D002206D
:103C100070BD00290BD0002A09D00123A0681B0326
:103C2000984206D12069002803D1C80701D001209D
:103C300070BD20464030E164028242820020254669
:103C4000803568602121E167216F002918D0154B6C
:103C50008B62236F1449D962236F14491963216F52
:103C6000134648632668E16C32462832206FFFF71E
:103C70001DF9002804D0102068602020E067D6E7F6
:103C8000216840200862EFF31080012181F3108841
:103C900021688A6880231A438A6080F31088002094
:103CA00070BD00001941000863410008154000087C
:103CB00010B5044600680749884202D1064800F062
:103CC000E2FA06492068884202D12046FFF722F82E
:103CD00010BD0000004400402401002000380140D5
:103CE0007047FEE7F0B587B014216846FCF75FFD2A
:103CF000264842690121C9040A43426142690A40D7
:103D000005924269C9000A43426142690A4005922C
:103D1000426949110A43426142690A400592426977
:103D200049000A43426140694C1108400590002255
:103D300021461748FFF7D4F9A6100022314615484E
:103D4000FFF7CEF9A700092000223946C006FFF789
:103D5000C7F90094002401250195029469460C4896
:103D60000394FFF7EBF8029469460A480096019520
:103D70000394FFF7E3F8092002946946C006009710
:103D800001950394FFF7DAF807B0F0BD0010024088
:103D9000000800480004004810B50C480A490160BA
:103DA000E1214902416000218160C16001618161BE
:103DB000C1610C22016242614162FFF719FE0028D5
:103DC00001D072B6FEE710BD003801409C00002013
:103DD00010B50C480A490160E12149024160002107
:103DE0008160C16001618161C1610C220162426137
:103DF0004162FFF7FDFD002801D072B6FEE710BD5D
:103E00000044004014000020FEE77047704710B5E2
:103E1000FFF772F910BD30B591B030216846FCF75C
:103E2000C6FC00240D94012003900E94022510205E
:103E300009940490009505200F94C0040A900C94F6
:103E400008950B946846FFF773FA002801D072B604
:103E5000FEE707200C900E9401210D950F940CA8FD
:103E6000FFF7A8F9002801D072B6FEE711B030BD07
:103E7000704710B5818C090707D501684A6801238E
:103E8000DB039A43436B1A434A60818CC90707D00E
:103E900001684A6801235B049A43836A1A434A60B3
:103EA000818C890707D501684A6801231B049A435E
:103EB000C36A1A434A60818C490707D501684A687A
:103EC00001239B049A43036B1A434A60818CC90601
:103ED00007D50268916801231B039943836B19433B
:103EE0009160818C890607D501688A6801235B038C
:103EF0009A43C36B1A438A60818C490612D50368C2
:103F00005A6801210905046C8A4322435A60026CF5
:103F10008A4207D10268516803235B059943436CC9
:103F200019435160818C090607D501684A6801234D
:103F3000DB04806C9A4302434A6010BDFEB507461D
:103F40000025803704467D60FFF7D0F80190206897
:103F50000068264600076036002819DA27480090D6
:103F60000121002249052046019B00F0C1FA0028EA
:103F70000ED0EFF31080012181F3108821680A68C8
:103F800080239A430A6080F310882020E06729E0AC
:103F900020680068400728D51848009001210022B9
:103FA00089052046019B00F0A3FA00281DD0EFF3FD
:103FB0001080012181F3108821680A68FF232133D2
:103FC0009A430A6080F31088EFF31080012181F397
:103FD000108821688A68520852008A6080F310882D
:103FE0002020386035760320FEBD2020E067386051
:103FF0002566656635760020FEBD0000FFFFFF01E7
:1040000010B5406A0022014640314A834A82FFF7D8
:10401000A4FB10BDF8B5446AE06F254680352E68D4
:104020002168896800270906002906DA212804D1B9
:1040300052200753204600F05CF920688068400653
:1040400006D5222E04D15A200753204600F021F92C
:1040500068681021084368602046FFF77EFBF8BDC2
:1040600070B501468969406A0022202938D05A215A
:104070000A52EFF31081012383F3108803681C6850
:10408000FF250135AC431C6081F31088EFF31081EC
:10409000012383F3108803689C68640864009C60B3
:1040A00081F31088EFF31081012383F310880368F4
:1040B0009C684025AC439C6081F3108820238021BC
:1040C0000B50016E01290BD1EFF31081012383F313
:1040D000108803681C681025AC431C6081F31088AD
:1040E0004266016E012902D0FFF78AFD70BD58219A
:1040F000095AFFF7F9FA70BD10B5406A012141660F
:10410000016E012902D0FFF77CFD10BD5821095A2C
:104110004908FFF7E9FA10BD10B501468969406A00
:1041200020291BD0002252210A52EFF310810122D4
:1041300082F31088026893688024A343936081F31C
:104140001088EFF31081012282F310880068026862
:1041500040231A43026081F3108810BDFFF7A8FDC9
:1041600010BD10B5406AFFF7BBFD10BD00B502469B
:1041700000F00CF8FF3201325168884201D3401A36
:1041800000BDFF220132511A081800BD0068406FBF
:1041900000684068FF210131081A70470068006814
:1041A000C169C90601D510210162704770B5044686
:1041B00002C0FF260D4601363146FCF7F8FA2046CC
:1041C000FF3031460930FCF7F2FA0020311D08516A
:1041D00049000855286801681022114301603246E1
:1041E000211D2846FFF7E0FC70BDFF30FF30023094
:1041F000007A7047F0B514460D460346FFF7B6FF48
:10420000844200D220460026DF1DF9377A68344602
:1042100006E0991809792955521C641CD2B2761C03
:104220008442F6D37A603046F0BDF8B50546002AE0
:1042300007D0EE1DFF36FA36307A002803D0022070
:10424000F8BD0020F8BDFF240134A24200D8144676
:104250002846FF30093022460746FCF749FA01207C
:104260003072A2B239462868FFF7CCFCF8BD70B5B1
:1042700005460C460846FCF719FA02462146284630
:10428000FFF7D3FF70BDFF300021FF300230017215
:10429000704710B5EFF31081012282F31088026895
:1042A0001368FF242134A343136081F31088EFF3D4
:1042B0001081012282F31088026893685B085B001A
:1042C000936081F31088016E01290BD1EFF3108107
:1042D000012282F31088026813681024A34313603C
:1042E00081F31088202280210A5000210166816616
:1042F00010BD10B5EFF31081012282F3108802681F
:104300001368C024A343136081F310882021C16780
:1043100010BD000070B5044680682169E269084359
:104320006169002511432268084311683F4B194019
:104330000143116021684868032212039043E26838
:1043400010434860A169206A084321688A680B23EA
:104350001B029A4302438A6035492068884210D183
:104360003448006B8007800F0ED0012805D002284A
:1043700005D003280AD1022109E0042107E0082121
:1043800005E02D49884201D1002100E010210120E3
:10439000E369C003294A2A4E834222D1002906D06C
:1043A000022907D0042907D0082935D108E0FEF7F3
:1043B00085FF03E0104603E0FEF790FF002830D0B1
:1043C000616840004A088018FCF72AFA0146103953
:1043D000B14221D81A49491C01400007400F084347
:1043E0001DE0002906D0022907D0042907D008299A
:1043F00012D108E0FEF762FF03E0104603E0FEF78B
:104400006DFF00280DD061684A081018FCF708FA03
:1044100001461039B14201D9012502E080B221687C
:10442000C8600020A066E066284670BDF369FFFF03
:1044300000380140001002400044004000127A00A1
:10444000EFFF000070B50446416540300283002054
:1044500025468035686022212960616F002919D0C6
:10446000204B8B62636F2049D962636F1F491963C8
:10447000616F13464863666D216832462431606F70
:10448000FEF714FD002805D0102068602020286069
:10449000012070BD206900280CD0EFF310800121AD
:1044A00081F3108821680A68FF2301331A430A60E8
:1044B00080F31088EFF31080012181F310882268C7
:1044C00093680B43936080F31088EFF3108081F3BF
:1044D000108821688A6840231A438A6080F3108814
:1044E000002070BD61400008F94000081540000838
:1044F000FFB506468036054681B00F460446603556
:1045000034E00A98401C31D0FEF7F0FD0499411ABE
:104510000A98814218D8002816D0206801684907F7
:1045200024D5802F22D0402F20D0C169C94309074C
:104530000CD4082707622046FFF7ABFE7760002007
:104540002876012005B0F0BD0320FBE7C069C04319
:1045500000050BD401202168C00208622046FFF745
:1045600098FE2020706000202876EDE72068C16961
:104570003846884305D0002103988142C1D00020ED
:10458000E0E70121F8E7000010B50348FFF706FE59
:104590000248FFF7E3F810BD2401002014000020BA
:1045A000F8B5040C8BB2264682B25E430D0C104661
:1045B000370C5843360480190021794116466E4362
:1045C000370C36048019794126466E438919F8BDA7
:1045D00030B47446641E2578641CAB4200D21D467C
:1045E000635D5B00E31830BC184700004900CA0255
:1045F0000243100000D004204A0D01D001221043D4
:10460000044A490D914201D102210843012800D1F9
:1046100005207047FF0700008307FF22DB0E9A404A
:104620008907090E9940002808DB830809489B0088
:104630001B18186890430843186070470007000F64
:104640000838830804489B001B18D8699043084326
:10465000D861704700E400E000ED00E030380A283F
:1046600001D201207047002070470522D20110B509
:1046700082180021116301214902B030FCF797F83C
:1046800010BD000008B5FEF73FFDFFF7C4FBFFF7C4
:1046900029FB2148416901221143416140690121FF
:1046A0001040009000220B20FEF780FD0B20FEF74B
:1046B00071FDFFF771FBFFF78BFB184C6069012759
:1046C000FF02B8436061164D6969B80081436961B2
:1046D0000926F60671698000814371617D20C00062
:1046E000FEF71AFC6069384360616869B9000843E5
:1046F000686170698900084370610A48FEF70CFC24
:1047000009490A48FFF752FD08490948FEF74EF9E2
:104710000748FEF715FAFBE70010024000040048C6
:104720000008004888130000140000202401002025
:10473000300300207047FFB581B004460E46FFF7F6
:1047400094FFFEF7D3FC7D270546FF0004E0FEF74B
:10475000CDFC401BB8420AD82068FFF746FD002870
:10476000F5D131462068FFF782FD002802D00020F5
:1047700005B0F0BD3220FEF7CFFB2046049A039926
:1047800000F002F8F4E70000F7B50446FEF7AEFCCF
:10479000074605202546C001B035261824E02068CC
:1047A000FFF7E4FC02000ED01348316B401A82423E
:1047B00000D9024649192068FFF71CFD316B081823
:1047C00000213063415528460199FBF75BFF002823
:1047D00001D00120FEBD09A12846FBF753FF0028A8
:1047E00008D10A20FEF798FBFEF780FC0299C01B57
:1047F0008842D4D30020FEBDFF0100004552524F35
:104800005200000010B500290AD00878002807D00F
:1048100005487844FDF756FA002801D0002010BD65
:104820000248784410BD0000660200005E020000ED
:1048300010B500290AD00878002807D00548784428
:10484000FDF740FA002801D0002010BD024878444E
:1048500010BD0000560200004E02000003B40248E2
:104860007844844603BC604753C7FFFF03B4024843
:104870007844844603BC6047BDC9FFFF02030405BA
:10488000060708090A0B0C0D0E0F10100102030495
:1048900005060708090A0B0C0D0E0F10000000009A
:1048A00000000000010203040607080900000000E0
:1048B00001020304000000000000000000000000EE
:1048C00000000000000000000000000000000000E8
:1048D00000000000000000000000000000000000D8
:1048E00000000000000000000000000000000000C8
:1048F00000000000B32200000000000000000000E3
:1049000000000000000000000000000000000000A7
:104910000000000000000000000000000000000097
:104920000000000000000000000000000000000087
:104930000000000000000000000000000000000077
:104940000000000000000000000000000000000067
:1049500000000000000001007800040000080000D2
:104960000000000000020001000010000000000034
:1049700000000000303132333435363738394142A7
:1049800043444546403058003031323334353637B1
:1049900038396162636465664030780030313233A3
:1049A0003435363738396162636465667870003053
:1049B000313233343536373839414243444546582D
:1049C0005000000002400000000000A000000000B5
:1049D00005400000000000C8000000000C4000007E
:1049E0000000409C00000000194000000020BCBEF8
:1049F0000000000034400000BFC91B8E000000040E
:104A0000B5400000504BCFD06607E2CF0100000058
:104A10006C4100003E8251AADFEEA7340100000085
:104A2000D9420000DCB5A0E23A301F97FFFFFFFF3C
:104A3000B4450000FD25A0C8E9A3C14FFFFFFFFF5B
:104A4000FF3F00000000008000000000FF3F00006A
:104A50000000008000000000A44B000800000020BF
:104A600014000000F8000008B84B000814000020F3
:104A70001C100000140100081C000000430000008E
:104A8000F8FFFFFF0C0000000E0000000F00000008
:104A90002E0000001001000043000000F8FFFFFF9F
:104AA0000040404040404040404041414141414041
:104AB00040404040404040404040404040404040F6
:104AC0004005020202020202020202020202020285
:104AD000022020202020202020202002020202028A
:104AE00002029090909090901010101010101010E2
:104AF00010101010101010101010101002020202EE
:104B00000202888888888888080808080808080831
:104B1000080808080808080808080808020202022D
:104B20004000000000000000000000000000000045
:104B30000000000000000000000000000000000075
:104B40000000000000000000000000000000000065
:104B50000000000000000000000000000000000055
:104B60000000000000000000000000000000000045
:104B70000000000000000000000000000000000035
:104B80000000000000000000000000000000000025
:104B90000000000000000000000000000000000015
:104BA0000000000001000000040000000000000000
:084BB00000127A000000000071
:04000005080000B53A
:00000001FF
