:020000040800F2
:10000000D81C0020A901000809280008772500084D
:1000100000000000000000000000000000000000E0
:100020000000000000000000000000000D28000893
:1000300000000000000000000B2800080F28000846
:10004000BB01000800000000BB010008BB01000864
:10005000BB010008BB010008BB010008BB01000890
:1000600000000000BB010008851500089D15000870
:10007000BB010008BB010008BB0100080000000034
:10008000BB010008BB01000800000000BB01000824
:10009000BB010008BB010008BB010008BB01000850
:1000A000BB010008BB010008BB010008992F000834
:1000B000B12F000800F002F800F04BF80CA030C897
:1000C000083824182D18A246671EAB4654465D46D4
:1000D000AC4201D100F03DF87E460F3E0FCCB64653
:1000E0000126334200D0FB1AA246AB4633431847E1
:1000F0000C3400002C340000103A02D378C878C1C8
:10010000FAD8520701D330C830C101D504680C6059
:10011000704700000023002400250026103A01D378
:1001200078C1FBD8520700D330C100D50B607047AF
:1001300010B5642902D100F051F910BD732902D124
:1001400000F0DAFB10BD002010BD1FB51FBD10B5BB
:1001500010BD00F0E9FB1146FFF7F7FF03F02CF8A4
:1001600000F001FC03B4FFF7F2FF03BC00F008FC51
:1001700070B505460C46164602E00FCC0FC5103E82
:10018000102EFAD2082E02D303CC03C5083E042E4B
:1001900007D301CC01C5361F03E021782970641C08
:1001A0006D1C761EF9D270BD07488047074800478E
:1001B000FEE7FEE7FEE7FEE7FEE7FEE70448054947
:1001C000054A064B7047000071280008B50000087A
:1001D000D8160020D81C0020D8180020D8180020DD
:1001E000FEB5054610460C46184373D0AE468C4605
:1001F0000020AD1A01469C4167D3664600270124C2
:100200003D46B61A9D4102D313463A46212465461F
:1002100076462F04360C3E432D0CB61A9D4104D36E
:10022000150C1B042B4312041034654676462F062A
:10023000360A3E432D0AB61A9D4104D3150E1B0201
:100240002B4312020834654676462F0736093E4393
:100250002D09B61A9D4104D3150F1B012B43120122
:10026000241D65467646AF07B6083E43AD08B61A6C
:100270009D4104D3950F9B002B439200A41C65461F
:100280007646EF0776083E436D08B61A9D411AD3AD
:1002900092185B41641C16E0001876466546494199
:1002A000B71A9D410191009009D36046B11A984157
:1002B0008E468446009801990025401C6941DD075F
:1002C00052082A435B08641EE6D57246634603B0B3
:1002D000F0BDFFE700200146C046C0462A4623463F
:1002E000F5E700000FB41CB50C0007AA009001D080
:1002F0000019401E084B7B4469460190069800F0A7
:10030000C8FA002C03D06946002000F0D5FA1CBCC6
:1003100008BC04B018470000C9050000F8B50E4637
:100320000446002020622046E1688847002829D042
:10033000252802D06268A16820E0E16820460027F5
:10034000884705001ED028464138192802D80127C1
:10035000FF0220353246204627602946FFF7E8FE97
:10036000002808D0012804D0F61DF608F60008364B
:10037000D9E7361DD7E762682846A1689047206A0A
:10038000401CCFE7206AF8BD70B50C460546012A2F
:1003900005D02878800600D5EA69002302E0012311
:1003A00005E05B1C934202D2E05C0028F9D1A86909
:1003B000E618C01AA861286AC01828622846C046F4
:1003C000C04604E06A682078A968641C9047B4427B
:1003D000F8D32846C046C04670BD0000F7B50025DA
:1003E00075291068009914A611D0C046C04600288F
:1003F00002DA404211A608E0009909688A0701D58F
:100400000FA602E0490704D50EA6012501E0C0466B
:10041000C046009F0024243704E000F071FA303118
:100420003955641C0028F8D12B46324621460098E5
:1004300000F0D2F9FEBD0000000000002D00000019
:100440002B0000002000000030B505460B462A4670
:100450001C781078521C5B1C002801D0A042F7D0F9
:10046000002C03D0002802D06D1CEFE7284630BDD9
:1004700030B5441C03E00178401C00290DD08107F1
:10048000F9D10B4BDD0104C8D11A91432940FAD0B0
:10049000001B0A0603D0C01E30BD001B30BD0A047D
:1004A00001D0801E30BD0902FCD0401E30BD0000CE
:1004B00001010101F8B5042A2CD3830712D00B786F
:1004C000491C0370401C521E83070BD00B78491C3B
:1004D0000370401C521E830704D00B78491C037024
:1004E000401C521E8B079B0F05D0C91ADF0020232A
:1004F000DE1B08C90AE0FFF73BFEF8BD1D4608C930
:10050000FD401C46B4402C4310C0121F042AF5D2F3
:10051000F308C91A521EF0D40B78491C0370401C12
:10052000521EEAD40B78491C0370401C012AE4D403
:1005300009780170F8BD431A70B593421BD289182F
:10054000801804E0491E401E0B78521E037093076A
:10055000F8D106E01039103878C9103978C0103851
:10056000103A102AF6D203E0091F001F0B6803603F
:10057000121FF9D570BDFFF7FBFD70BDF8B506463B
:1005800014460843800707D0751AA54219D20819E6
:10059000102D13D2311907E03046FFF7CCFFF8BD1C
:1005A000401E491E02780A70641EF9D2F8BD471B2E
:1005B0002A463946FFF77EFF641B3846A542F6D32C
:1005C000011B22463046FFF775FFF8BD01E004C06D
:1005D000091F0429FBD28B0701D50280801CC907A3
:1005E00000D00270704700290BD0C30702D0027000
:1005F000401C491E022904D3830702D50280801CB7
:10060000891EE3E70022EEE70022DFE7F8B50746A0
:100610000B4639461943890713D1164CE601042AC3
:100620000FD302CB0D1B8D43354202D102C0121FE6
:10063000F5E7CBB20370401C521E002B13D0090A01
:10064000F7E7002A14D01978521E5B1C0170401C79
:10065000002908D0002A0BD01978521E5B1C0170AB
:10066000401C0029EDD1002A02D01146FFF7CAFF35
:100670003846F8BD01010101002203098B422CD349
:10068000030A8B4211D300239C464EE003460B43E2
:100690003CD4002243088B4231D303098B421CD344
:1006A000030A8B4201D394463FE0C3098B4201D336
:1006B000CB01C01A524183098B4201D38B01C01A6E
:1006C000524143098B4201D34B01C01A52410309E5
:1006D0008B4201D30B01C01A5241C3088B4201D394
:1006E000CB00C01A524183088B4201D38B00C01A41
:1006F000524143088B4201D34B00C01A5241411A68
:1007000000D201465241104670475DE0CA0F00D04A
:100710004942031000D34042534000229C46030943
:100720008B422DD3030A8B4212D3FC22890112BAC9
:10073000030A8B420CD3890192118B4208D38901A1
:1007400092118B4204D389013AD0921100E08909B9
:10075000C3098B4201D3CB01C01A524183098B429A
:1007600001D38B01C01A524143098B4201D34B0183
:10077000C01A524103098B4201D30B01C01A5241E6
:10078000C3088B4201D3CB00C01A524183088B426D
:1007900001D38B00C01A5241D9D243088B4201D3F6
:1007A0004B00C01A5241411A00D2014663465241E1
:1007B0005B10104601D34042002B00D549427047E0
:1007C00063465B1000D3404201B50020C046C046DE
:1007D00002BD704770477047FFB504460D4681B0B3
:1007E000243000902168880604D51022E0699143E6
:1007F000216000E00120A84201DD471B00E0002746
:100800000498A1697A191018081AA0612078C00606
:1008100002D42046C046C046002608E0039862681D
:10082000A168805D9047206A401C761C2062049875
:100830008642F3DB2078C0060AD52046C046C04673
:1008400006E06268A16830209047206A401C206260
:1008500038467F1E0028F4DC07E000986268A16833
:10086000405D9047206A401C206228466D1E00288B
:10087000F3DC2046C046C0462078000602D50220A0
:1008800005B0F0BD0120FBE701694A1C0261087850
:10089000704700B58FB00291002105910549019381
:1008A00079440391114604906846FFF737FD0FB075
:1008B00000BD0000E5FFFFFF0A681070521C0A60CF
:1008C00070470CC908399A4202D2531C0B60107051
:1008D000704710B54369002B02D0C046C04601E006
:1008E000FFF752FD012010BD1278014624310A7035
:1008F00000224A700122ECE711680022D243E8E7A7
:1009000001468008081A02091018020A1018020C81
:100910001018C008820012185200891A01E0401C09
:100920000A390A29FBD27047754600F025F8AE4611
:10093000050069465346C008C000854618B020B57A
:10094000FFF73CFC60BC00274908B6460026C0C53E
:10095000C0C5C0C5C0C5C0C5C0C5C0C5C0C5403D77
:1009600049008D46704710B50446C046C046204633
:10097000FFF7F8FB10BD0000004870477416002018
:1009800001491820ABBEFEE72600020070470000B8
:10099000F0B5C5B004004CD0152040012718B3486D
:1009A00000213976201880210646FFF72BFE2546C8
:1009B0000120A035A87202200090FF23F533ACA2DD
:1009C000ACA1204602F058FC002807D1C82000F056
:1009D0000BFF0099481E00900029EEDC2046B03045
:1009E00000990490002901DA01201AE0642000F047
:1009F000FBFEA24BA2A2A6A1204602F03DFC0028CD
:100A00000ED0642000F0F0FE1D200090FF23F5338F
:100A1000A2A2A5A1204602F02FFC00281CD109E0CB
:100A2000022038767F2230460499FFF7EFFD092037
:100A3000A87217E1FF23F5339EA29BA1204602F086
:100A40001BFC002808D1FF20F53000F0CDFE0099F6
:100A5000481E00900029D9DC0098002801DA032004
:100A6000DFE7642000F0C0FE1D200090FF23F53377
:100A700093A296A1204602F0FFFB002811D1FF238C
:100A8000F53395A291A1204602F0F6FB002808D18B
:100A9000FF20F53000F0A8FE0099481E00900029C4
:100AA000E4DC0098002801DA0420BAE7642000F0B2
:100AB0009BFE724B6EA28BA1204602F0DDFB6420F0
:100AC00000F092FE7D231B0169A28AA1204602F05C
:100AD000D3FB322000F088FE8E4B65A28EA120460B
:100AE00002F0CAFB002833D0642000F07DFE7D2395
:100AF0001B015FA28CA1204602F0BEFB322000F059
:100B000073FE7D231B015AA28AA1204602F0B4FB8A
:100B1000322000F069FE7D231B0155A28AA12046E8
:100B200002F0AAFB322000F05FFE7D231B0150A2E1
:100B300089A1204602F0A0FB642000F055FE4F4B37
:100B40004BA289A1204602F097FB002802D007E0C3
:100B5000052066E788A10498FFF776FC002875D089
:100B6000642000F041FE0220A8722346C1018633B2
:100B700085A205A8FFF7B6FB404B3DA205A920467C
:100B800002F07AFB002863D0642000F02DFEA879E3
:100B9000002834D00320A8727D231B0134A280A139
:100BA000204602F069FB322000F01EFE7D231B016F
:100BB0002FA283A1204602F05FFB322000F014FE3A
:100BC0007D231B012AA285A1204602F055FB32207D
:100BD00000F00AFE7D231B0125A288A1204602F019
:100BE0004BFB322000F000FE244B21A28CA12046BA
:100BF00002F042FB00282DD0C82000F0F5FD0420B3
:100C0000A8722346A82144206633095B005B224674
:100C1000039346326B4607C3FF21231D86A2013191
:100C200005A8FFF75FFB3B4B90A205A9204602F009
:100C300023FB002818D00520A872192101204901A2
:100C40006118C876002045B0F0BDFFE70720E8E650
:100C50000820E6E609243C767F2230460499FFF717
:100C6000D5FCAC720120EEE70A20DAE6B9020000FA
:100C70004F4B000041540D0A000000008813000093
:100C80002B4350494E3A2052454144590000000040
:100C900041542B4350494E3F0D0A00002B4352450F
:100CA000473A20302C31000041542B435245473FF6
:100CB0000D0A00002B435245473A20302C350000E6
:100CC0002B43475245473A20302C310041542B43A7
:100CD000475245473F0D0A002B43475245473A20AC
:100CE000302C350041542B43474143543D302C3187
:100CF0000D0A000041542B434744434F4E543D31AD
:100D00002C224950222C22696E7465726E65742201
:100D10000D0A00001027000041542B434741435463
:100D20003D312C310D0A000041542B4353510D0A23
:100D30000000000041542B434D5154544449534347
:100D40003D302C36300D0A0041542B434D51545444
:100D500052454C3D300D0A0041542B434D515454E3
:100D600053544F500D0A000041542B434D515454DD
:100D700053544152540D0A002B434D515454535473
:100D80004152543A2030000041542B434D515454A9
:100D9000414343513D302C222573222C310D0A0052
:100DA00041542B4353534C4346473D2273736C7657
:100DB000657273696F6E222C302C340D0A000000AE
:100DC00041542B4353534C4346473D22617574684D
:100DD0006D6F6465222C302C300D0A0041542B437A
:100DE00053534C4346473D22656E61626C65534EDA
:100DF00049222C302C310D0A0000000041542B43B5
:100E000053534C4346473D2269676E6F72656C6F62
:100E100063616C74696D65222C302C310D0A000001
:100E200041542B434D51545453534C4346473D304A
:100E30002C300D0A0000000041542B434D515454F6
:100E4000434F4E4E4543543D302C227463703A2F2D
:100E50002F25733A2564222C25642C312C222573EE
:100E6000222C222573220D0A000000002B434D5135
:100E70005454434F4E4E4543543A20302C300000DA
:100E8000F8B5040025D025460821A035124EA972D8
:100E9000334612A212A1204602F0EEF9FF27F537E1
:100EA000384600F0A1FC33460CA212A1204602F005
:100EB000E3F9384600F098FC334608A211A1204619
:100EC00002F0DAF9002019214901A8726118C876E8
:100ED000F8BD0120F8BD0000881300004F4B000052
:100EE00041542B434D515454444953433D302C36C7
:100EF000300D0A0041542B434D51545452454C3D42
:100F0000300D0A0041542B434D51545453544F500B
:100F10000D0A000010B5134604001ED000291CD095
:100F2000002B1AD02160A6221946201DFFF7C2FA15
:100F30000020AA210855AC2108510521C9016118DA
:100F4000086319214901611848768876C876C87601
:100F5000204602F09EF8002010BD012010BD0028A0
:100F600003D0192149014018C07E7047F0B589B0FF
:100F700004007DD01920400120180790C07E002871
:100F800076D0206801F0F2FD020071D00520C0018A
:100F900027184A48396B401A824200D90246204637
:100FA000B03009180490206801F026FE396B002249
:100FB000081838630499425441A10498FFF744FA91
:100FC000039043A10498FFF73FFA014603980028D5
:100FD0005BD0002959D042A10498FFF735FA0600EA
:100FE00050D0204680300890C06A00284AD041A1E5
:100FF0003046FFF729FA002844D0801C05463EA160
:10100000FFF722FA00283DD0A84205D90146203931
:10101000C97F0A2900D1401EA84205D901462039BE
:10102000C97F0D2900D1401E401B059035A10398B2
:10103000FFF70AFA002825D0B04223D22DA1FFF7EE
:1010400003FA00281ED0B0421CD2801C29A10390B4
:10105000FFF7FAF9002815D0B04213D20399461AC7
:10106000802E00D37F2632462A48FFF723FA00E07D
:1010700021E028490020885508982946C36A254858
:10108000059A9847204602F004F823A10498FFF738
:10109000DBF9002807D007990020C876AA21085557
:1010A000204601F0F6FFFF21386B9D31884202D9BE
:1010B000204601F0EEFF09B0F0BD0000FF01000086
:1010C0002B434D515454525853544152543A0000FA
:1010D0002B434D5154545258454E443A00000000A1
:1010E0002B434D51545452585041594C4F41443A5E
:1010F000000000000D0A00002B434D51545452587B
:10110000454E44002B434D5154545258544F50496E
:10111000433A0000980D00202B434D515454434F47
:101120004E4E4C4F53543A00FFB5C1B005005CD051
:101130004298002859D04398002856D019204001E1
:101140002818C07E002852D02C460720A034A07258
:101150004298FFF78DF90346FF2127A20131684627
:10116000FFF7C0F82A4F2BA23B466946284602F0FB
:1011700083F8052600283CD03B4627A22846429902
:1011800002F07AF8002834D0FF2124A20131684609
:10119000449BFFF7A7F83B461EA26946284602F08B
:1011A0006BF8002825D0284601F073FF2868449A80
:1011B000439901F03EFD3A4617A1284602F0D0F8C7
:1011C000002816D0FF211BA2013168464A9BFFF779
:1011D00089F83B461DA26946284602F04DF80028D2
:1011E00007D0A672002045B0F0BD0120FBE7042027
:1011F000F9E7A672F9E7000041542B434D515454CE
:10120000544F5049433D302C25640D0A0000000026
:10121000881300003E0000004F4B000041542B4358
:101220004D5154545041594C4F41443D302C25644C
:101230000D0A000041542B434D5154545055423D2A
:10124000302C25642C36300D0A0000002B434D5104
:1012500054545055423A20302C300000FEB5074619
:101260001C460E4615461046FFF702F900210346BC
:1012700001912A46009431463846FFF755FFFEBDDE
:10128000002801D08030C16270470000F7B5C2B0BD
:101290001646040031D0439800282ED01920400172
:1012A0002018C07E00282BD025460620A035A87225
:1012B0004398FFF7DDF80346FF2117A2013101A88B
:1012C0000096FFF70FF81A4F1AA23B4601A92046D5
:1012D00001F0D2FF0526002814D03B4616A2204676
:1012E000439901F0C9FF00280CD0204613A1B0306B
:1012F000FFF7AAF8002807D00BE0012045B0F0BDA9
:101300000420FBE7AE72F8E73A460CA1204602F053
:1013100027F8AE720020F1E741542B434D5154544D
:101320005355423D302C25642C25640D0A000000E5
:10133000881300003E0000004F4B00002B434D512E
:1013400054545355423A20302C30000070B50400FC
:1013500012D00D208001251802212970201DFFF7D1
:1013600017FB0146032000022018002906D00421A3
:101370002970C16C491CC164002070BD0321297013
:101380000021C1640A4605A1201DFFF77FFF08A1C7
:10139000204600F08FF8012070BD000075617634A2
:1013A000672F6D61766C696E6B2F7278000000009C
:1013B0006F6E6C696E65000070B5AAB00E460400D1
:1013C0003AD0002E38D00D21890165180321002064
:1013D000266009022870611848648864C8641B4943
:1013E0001B4801F0E4FB211D194801F057F9A82220
:1013F00018496846FEF7BCFE3F2217A16846FFF772
:1014000005F910A81F2221A10230FFF7FFF818A844
:101410001F2220A10230FFF7F9F820A81F2221A1E6
:101420000230FFF7F3F86A463146201DFFF772FDE0
:10143000002804D00420287000202AB070BD1C4968
:10144000201DFFF71DFF01202870F6E798000020FF
:101450002C0500201434000864336664306664355B
:1014600039656431346236643966653033376330E8
:1014700065663162663636322E73312E65752E689A
:101480006976656D712E636C6F7564007561763475
:101490006700000055617634675F74696D656C6143
:1014A0007073650073746D33325F756176346700F5
:1014B0007132000810B500280FD000290DD00D2280
:1014C000920182181278032A07D10A46012305A146
:1014D000001DFFF7C3FE002801D0002010BD012031
:1014E00010BD000075617634672F73746174757375
:1014F00000000000F8B5060019D000F05FFA0446BD
:101500000D2080013718387803210902751803006F
:1015100001F072FD050D040D0E223100A86C211A98
:101520001648814203D33046AC64FFF70FFFF8BD85
:10153000301DFFF71BFD01F0E5F8301DFFF70FFD33
:10154000002806D0686C211A0C488142EFD36C64E5
:10155000F8BD04203870F8BDA86C0949201A8842EB
:10156000F9D3301DAC64FFF78BFC7D20C00000F088
:101570003BF90120EEE70020ECE7000088130000B3
:101580003075000010B5034800F080F8024800F004
:101590007DF810BD100D0020540D002010B503483B
:1015A00000F074F8024800F071F810BDCC0C002077
:1015B000880C002010B50446006805494018142125
:1015C000FFF75AF8800020640248E06310BD000075
:1015D000F8FFFDBF0000024030B5056C0124AC40AF
:1015E000C56B6C60046863604368102B036803D0AC
:1015F00099600068C26030BD9A600068C16030BD0B
:1016000072B6FEE730B5014620314B780022022B3E
:1016100004D0042383630A70012030BD03681C6872
:101620000E25AC431C6003681C68640864001C60E1
:101630000123056C1C46C06BAC4044604B700A70C3
:10164000002030BD70B50024014620314A78022ABE
:1016500003D004218163012416E0026813680E257B
:10166000AB431360026813685B085B0013600122E0
:10167000056C1346AB40C56B6B604A7000220A7064
:10168000416B002900D08847204670BDF0B4C16B83
:101690000D6801680C680422066C1346B3402B42A7
:1016A0000DD063070BD50B689B0602D40B689343E0
:1016B0000B60016C8A40C16B4A60C16A19E0022765
:1016C000B74002462F4001232032002F15D0A70734
:1016D00013D50C68A40604D40C680A25AC430C602E
:1016E0005370036C02219940C36B59600021117043
:1016F000816A002916D0F0BC08470827B7402F425E
:1017000010D024070ED50C680E25AC430C60046C79
:101710001946A140C46B616083635370002111704E
:10172000016BE6E7F0BC704770B5040021D00221E0
:101730002046203005464170226811680E48A36893
:101740000140606826691843E368334318436369BE
:101750001843A3691843E3691843084310602046FF
:10176000FFF728FF0021A163012068702970084657
:1017700070BD012070BD00000FC0FFFFF8B504462A
:101780008C46203001780025012909D001260670F9
:1017900041780027012905D0077002252846F8BDA9
:1017A0000220F8BD02214170A76320680168490842
:1017B0004900016061462046FFF70EFFE06A0028FD
:1017C0002068016802D00E22114306E00A2211436C
:1017D000016020680168042291430160206801686B
:1017E00031430160DAE7000070B5044600F0E6F826
:1017F0000546601C02D004480078241800F0DEF88A
:10180000401BA042FAD370BD00000020F8B50023B1
:1018100003240125BAE02E469E40B44632407CD0D7
:101820000E79B607B60F012E01D0022E17D18668A9
:101830002746B6465E00B74000967646BE43B6469B
:10184000CF68009EB7407646374387604668674654
:10185000BE430F79FF06FF0F9F40374347600E7965
:10186000F643B6070ED0C6682746B4465E00B646B5
:10187000B7406646BE43B4468F687646B740664674
:101880003743C7600E79B607B60F022E14D1DE08B3
:10189000B60036180096366A5F07B446FE0E0F276C
:1018A000B646B7406646BE43B4460F697646B74073
:1018B00066463743009E376206682746B4465E0098
:1018C000B646B7406646BE430F79B446BF07BF0F62
:1018D0007646B7406646374307604E68B603B60F94
:1018E00053D02D4FBE692E43BE61BE699F08F607D7
:1018F000F60F2A4EBF00BE190096B6680F27B446F1
:101900009E07360FB646B7406646BE430927FF0618
:10191000B446B84202D1002710E036E0204FB8426A
:1019200001D101270AE01F4FB84201D1022705E08B
:101930001D4FB84201D1032700E005277646B74086
:1019400066463743009EB760184EB6684F689643A8
:10195000FF0200D51643154FBE60FE684F689643E0
:10196000BF0200D51643114FFE607E684F68964354
:10197000BF0300D516430D4F7E603E684F68964307
:10198000FF0300D51643094A16605B1C0A68164619
:10199000DE4000D03FE7F8BD0010024000000140EB
:1019A0000004004800080048000C00480004014002
:1019B000002A01D0816170478162704701488068C8
:1019C00070470000000000200248816802788918F2
:1019D000816070470000002010B5064801681022A1
:1019E00011430160032000F007F800F027F8002001
:1019F00010BD00000020024070B504460D4D7D2052
:101A00002978C000FEF738FE01460B480068FEF753
:101A100033FE00F0B9FA002809D1042C07D20022C5
:101A20002146401E00F02AF800206C6070BD0120A5
:101A300070BD0000000000200C00002008B5084820
:101A40008169012211438161816911400091C2695C
:101A500001040A43C261C0690840009008BD00004B
:101A600000100240002805DBC106C90E0120884095
:101A7000014908607047000000E100E010B501F086
:101A8000C9FA10BDF8B50F46060059D03A4D28687E
:101A9000C007C00FB84209D2286840084000384348
:101AA00028602868C007C00FB84249D13068334C5D
:101AB00081070CD5400704D5606807210902084357
:101AC00060606068F0218843B168084360603078E6
:101AD000C00726D0706801280ED0216802280ED0D9
:101AE000890700292CDA616889088900014361604F
:101AF000FFF764FF00900DE021688903F1E7890199
:101B0000EFE7FFF75BFF0099411A1D48814201D9B9
:101B10000320F8BD60680C21084071688900884284
:101B2000EFD12868C007C00FB8420BD92868400819
:101B30004000384328602868C007C00FB84201D071
:101B40000120F8BD3078400706D5606807210902FA
:101B50008843F1680843606000F028F86168094A2A
:101B60000906090F515CC840074908600320FFF7C8
:101B700043FF0020F8BD000000200240001002409A
:101B800088130000FC3300080C00002004480549BD
:101B900000684968044A4905490F515CC8407047CC
:101BA0000C000020001002400C34000810B5104A50
:101BB00051680C200B4603400E48042B17D0082B0D
:101BC00015D18B020C4C1B0FE45CD26A0A4B120736
:101BD000120F10339A5CC90305D500231946FEF78E
:101BE000FFFA214601E02046044901F0EDF910BD5D
:101BF0000010024000127A00DC33000800093D00AA
:101C0000FEB5040070D02078DC4DC0074AD068686B
:101C10000007800F012807D068680007800F02289E
:101C200009D16868C00306D5286880033AD5606882
:101C30000028E7D036E06168012914D00120800433
:101C4000002901D0052914D02A68012109048A43FA
:101C50002A602968814329606068002816D0FFF750
:101C6000ADFE06460EE028680121090408432860FD
:101C7000F2E7296801432960F5E7FFF79FFE801B23
:101C800064286ED828688003F7D50BE0FFF796FE2E
:101C9000064604E0FFF792FE801B6428F1D828680E
:101CA0008003F7D420780126800700283CDA686892
:101CB0000007800F07D068680007800F022809D14D
:101CC0006868C00306D42868800716D5E068012834
:101CD0000AD112E0E0680028286816D03043286056
:101CE000FFF76CFE074605E043E1FFF767FEC01B08
:101CF0000228C6D828688007F7D52868F8218843C5
:101D00002169C900084328600EE0400840002860AF
:101D1000FFF754FE074604E0FFF750FEC01B022801
:101D2000AFD828688007F7D42078000722D5E0696B
:101D30000028686A0ED030436862FFF73FFE07460E
:101D400004E0FFF73BFEC01B02289AD8686A8007B0
:101D5000F7D50FE0400840006862FFF72FFE074606
:101D600005E09DE0FFF72AFEC01B022889D8686ABB
:101D70008007F7D4207804274007002860DA002085
:101D80000190E869C00008D4E969B8060143E96137
:101D9000E969014001200091019079480168C90575
:101DA00011D40168821511430160FFF707FE00900E
:101DB00005E0FFF703FE0099401A642870D87048C8
:101DC0000068C005F5D5A06801280AD0002801D018
:101DD000052810D0286A400840002862286AB843C5
:101DE00001E0286A30432862A068002812D0FFF77B
:101DF000E5FD00900AE0286A38432862F1E7FFF722
:101E0000DDFD0099411A5F48814249D8286A800760
:101E1000F5D50DE0FFF7D2FD009006E0FFF7CEFD0F
:101E20000099411A574881423AD8286A8007F5D468
:101E30000198002804D0E969012000078143E96185
:101E40002078C00635D5606901280CD0401D686B2C
:101E500023D038436863686B400840006863FFF72D
:101E6000ADFD064622E0686B38436863686B30431B
:101E70006863FFF7A3FD064604E0FFF79FFD801BA4
:101E800002285BD8686B8007F7D5686BF821884318
:101E9000A169C900084368630BE0B8436863F4E7CD
:101EA0004CE0FFF78BFD801B022847D8686B80074A
:101EB000F7D4206A00285ED069680907890F0229D3
:101EC00042D0012636060228286805D0B043286093
:101ED000FFF774FD044633E0B0432860FFF76EFD62
:101EE000074604E0FFF76AFDC01B022826D82868D1
:101EF0008001F7D4E86AE16A000900010843E8625A
:101F0000616AA06A084369683D221204914308434C
:101F10006860286830432860FFF750FD044604E0FD
:101F2000FFF74CFD001B022808D828688001F7D570
:101F300021E0FFF743FD001B022801D90320FEBD6D
:101F400028688001F5D416E00128F8D06868E96AAD
:101F500001221204636A02409A420AD10907E26A26
:101F6000090F914205D10F2189040840A16A8842D6
:101F700001D00120FEBD0020FEBD00000010024087
:101F80000070004088130000094910B5401E8842C7
:101F900001D9012010BD074C60610321081F01F029
:101FA00039F80020A06107202061002010BD00004A
:101FB000FFFFFF0000E000E070477047F8B50268DF
:101FC0000446D069116893689E4D06462E4025460A
:101FD0008035002E71D09C4FDE07F60F0F4037433F
:101FE0007ED0C70706D0CF0504D5012717626A68DF
:101FF0003A436A60820708D5DA0706D027680222CA
:102000003A626A6804273A436A60420708D5DA07E9
:1020100006D0236804221A626A6802231A436A609F
:10202000020709D520220A40324305D0236808223E
:102030001A626B6813436B60020509D54A0107D524
:1020400001222368D2021A626B68202213436B605C
:102050006A68002A39D0800606D5880604D5A16EA4
:10206000002901D0204688476868216889684906A8
:1020700002D4282108422DD0204600F012FE21680B
:102080008868400622D5EFF31080012282F3108881
:102090008A6840239A438A6080F31088606F002822
:1020A00014D06A494163606FFFF7CCFA00280CD066
:1020B000606F416B08E000E012E0830610D58B06EC
:1020C0000ED5A16EA3E020468847F8BD2046FFF755
:1020D00074FFF8BD2046FFF770FF00206860F8BD70
:1020E000236E012B7ED1C3067CD5CB067AD5102377
:1020F000136222689068264640064036002848DA77
:10210000616F086840680004000CE8D0378B874294
:10211000E5D970838869202834D0EFF3108001213D
:1021200081F3108811681F01B943116080F3108892
:10213000EFF31080012181F3108821688A6852082A
:1021400052008A6080F31088EFF31080012181F340
:10215000108821688A684027BA438A6080F3108813
:102160002020286000202066EFF31080012181F3F9
:10217000108821680A689A430A6080F31088606FAB
:10218000FFF740FA02206066308B718B401A81B2F3
:1021900034E0308B718B401A81B2708B00289ED056
:1021A00000299CD0EFF31080012686F31088166872
:1021B000FF272137BE43166080F31088EFF31080AD
:1021C000012282F31088226896687608760096606D
:1021D00080F310882020286000202066A066EFF39E
:1021E000108000E00EE0012282F31088226815685A
:1021F0009D43156080F31088022060662046FFF73B
:10220000DBFEF8BD030606D50B0604D5E16E0029FA
:1022100000D058E7F8BD4006FCD54806FAD5204660
:10222000EFF31081012383F31088146840239C434B
:10223000146081F310882021C1670021C16600F07D
:102240007FF9F8BD0F08000020010004012A0008F2
:1022500010B5040003D0E06F002802D007E0012091
:1022600010BD002178200155204600F027F82420D9
:10227000E06720680168490849000160606A002839
:1022800002D0204600F0F5FA204600F04BFD012870
:10229000E6D0206841680122D20291434160206863
:1022A00081680822914381602068016801221143FE
:1022B0000160204600F042FB10BD0000F0B587B081
:1022C000044614216846FEF79FF9534F0121266802
:1022D00052484904022303220025BE4249D1C6695F
:1022E0000E43C661C6690E40059646690E434661B7
:1022F00040696E46084005900C20039229C60120D3
:10230000049009206946C006FFF780FA4448454E0C
:1023100021C63560B5608020F5607060202007021E
:10232000776130613F48083EFFF7FEF9002801D091
:10233000FFF766F966673A4874623B4E14383060BE
:102340001020B560706035617561F7618020B561FE
:10235000F0603046FFF7E8F9002801D0FFF750F9A8
:102360002667002201211C207462FFF787FB1C20D6
:102370004DE02E4FBE424CD187690126B60337434C
:10238000876187693740059746690E434661406912
:102390006E460840059003204002039229C60120A2
:1023A000049009206946C006FFF730FA1C48204E09
:1023B000283821C635608027B56077602020F56019
:1023C0003061000270611A48083EFFF7ADF900283D
:1023D00001D0FFF715F9666774621148154E3C3855
:1023E00030601020311DA1C135617561B561304685
:1023F000F561FFF799F9002801D0FFF701F9266789
:10240000002201211B207462FFF738FB1B20FFF71D
:1024100029FB07B0F0BD000000440040001002405E
:1024200058000240880C0020CC0C002000380140ED
:10243000540D0020100D002070B580231B58202B58
:1024400001D0022070BD00290BD0002A09D0012440
:1024500083682403A34206D10369002B03D1CB0771
:1024600001D0012070BD00230366046863681B026D
:102470000BD5EFF31083012585F31088256801261D
:10248000B6063543256083F3108800F0E3FC70BD89
:102490007047704770B50446C06F202801D00220F5
:1024A00070BD00290BD0002A09D00123A0681B03AE
:1024B000984206D12069002803D1C80701D0012025
:1024C00070BD20464030E1640282428200202546F1
:1024D000803568602121E167216F002918D0154BF4
:1024E0008B62236F1449D962236F14491963216FDA
:1024F000134648632668E16C32462832206FFFF7A6
:102500003DF9002804D0102068602020E067D6E75D
:10251000216840200862EFF31080012181F31088C8
:1025200021688A6880231A438A6080F3108800201B
:1025300070BD0000192B0008632B0008152A000845
:1025400010B5044600680749884202D1064800F0E9
:10255000A2FB06492068884202D1054800F09BFB97
:1025600010BD000000440040200100200038014060
:102570002C0500207047FEE7F0B587B014216846AF
:10258000FEF742F8264842690121C9040A43426124
:1025900042690A4005924269C9000A4342614269A0
:1025A0000A400592426949110A43426142690A4060
:1025B0000592426949000A43426140694C11084052
:1025C0000590002221461748FFF7F2F9A6100022D5
:1025D00031461548FFF7ECF9A700092000223946DB
:1025E000C006FFF7E5F90094002401250195029447
:1025F00069460C480394FFF709F9029469460A48B2
:10260000009601950394FFF701F9092002946946A9
:10261000C006009701950394FFF7F8F807B0F0BDE6
:1026200000100240000800480004004810B50C48A3
:102630000A490160E1214902416000218160C160D5
:1026400001618161C1610C22016242614162FFF757
:10265000FFFD002801D072B6FEE710BD0038014032
:102660009800002010B50C480A490160E121490298
:10267000416000218160C16001618161C1610C2202
:10268000016242614162FFF7E3FD002801D072B6AA
:10269000FEE710BD004400401000002010B5064ABF
:1026A00003C2064800218160C16001214902104631
:1026B000FDF7AAFF10BD000018100020181200201E
:1026C00070B50B4C0E462168154600290FD009A1A4
:1026D000FDF7BAFE00280AD0094A2946304600F024
:1026E000E4FC020003D00649206800F0A2FA70BDA5
:1026F000181000206D61766C696E6B2F7278000087
:10270000180E0020FEB5394D286800282ED06868C4
:1027100000282BD0FEF723FC002827D0FFF74EF926
:102720000646286800F022FA2C462746FF34FF347C
:1027300008370234024600280FD00120A168400269
:10274000401A824201D9020007D0C919286800F056
:1027500053FAA168E6600818A060A068002805D0B8
:10276000E068301A322802D90020A060FEBD284659
:1027700009300090287AA268FD280BD1032AF5D3EE
:102780006E7AA87A0C36C00700D00D36FF202D30A7
:10279000864207D93846521E0099FDF7EFFEA06821
:1027A000401E1FE0B242E1D3686800280FD0FEF758
:1027B000D6FB00280BD00E4A31463846019200F075
:1027C00083FD002368680BA1019AFEF747FDA0680E
:1027D000B04205D9821BA91938460831FDF7CEFE53
:1027E000A068801BA0600028C4D1FEBD1810002086
:1027F0002812002075617634672F6D61766C696EE2
:102800006B2F747800000000FEE77047704710B52A
:10281000FFF7DAF810BD30B591B030216846FDF70A
:10282000F3FE00240D94012003900E940225102045
:1028300009940490009505200F94C0040A900C940C
:1028400008950B946846FFF7DBF9002801D072B6B3
:10285000FEE707200C900E9401210D950F940CA813
:10286000FFF710F9002801D072B6FEE711B030BDB5
:10287000704710B5818C090707D501684A680123A4
:10288000DB039A43436B1A434A60818CC90707D024
:1028900001684A6801235B049A43836A1A434A60C9
:1028A000818C890707D501684A6801231B049A4374
:1028B000C36A1A434A60818C490707D501684A6890
:1028C00001239B049A43036B1A434A60818CC90617
:1028D00007D50268916801231B039943836B194351
:1028E0009160818C890607D501688A6801235B03A2
:1028F0009A43C36B1A438A60818C490612D50368D8
:102900005A6801210905046C8A4322435A60026C0B
:102910008A4207D10268516803235B059943436CDF
:1029200019435160818C090607D501684A68012363
:10293000DB04806C9A4302434A6010BDFEB5074633
:102940000025803704467D60FFF738F80190206845
:102950000068264600076036002819DA27480090EC
:102960000121002249052046019B00F0C9FA0028F8
:102970000ED0EFF31080012181F3108821680A68DE
:1029800080239A430A6080F310882020E06729E0C2
:1029900020680068400728D51848009001210022CF
:1029A00089052046019B00F0ABFA00281DD0EFF30B
:1029B0001080012181F3108821680A68FF232133E8
:1029C0009A430A6080F31088EFF31080012181F3AD
:1029D000108821688A68520852008A6080F3108843
:1029E0002020386035760320FEBD2020E067386067
:1029F0002566656635760020FEBD0000FFFFFF01FD
:102A000010B5406A0022014640314A834A82FFF7EE
:102A1000D4FA10BDF8B5446AE06F254680352E68BB
:102A20002168896800270906002906DA212804D1CF
:102A300052200753204600F064F920688068400661
:102A400006D5222E04D15A200753204600F029F93A
:102A500068681021084368602046FFF7AEFAF8BDA9
:102A600070B501468969406A0022202938D05A2170
:102A70000A52EFF31081012383F3108803681C6866
:102A8000FF250135AC431C6081F31088EFF3108102
:102A9000012383F3108803689C68640864009C60C9
:102AA00081F31088EFF31081012383F3108803680A
:102AB0009C684025AC439C6081F3108820238021D2
:102AC0000B50016E01290BD1EFF31081012383F329
:102AD000108803681C681025AC431C6081F31088C3
:102AE0004266016E012902D0FFF7D2FC70BD582169
:102AF000095AFFF761FA70BD10B5406A01214166BD
:102B0000016E012902D0FFF7C4FC10BD5821095AFB
:102B10004908FFF751FA10BD10B501468969406AAE
:102B200020291BD0002252210A52EFF310810122EA
:102B300082F31088026893688024A343936081F332
:102B40001088EFF31081012282F310880068026878
:102B500040231A43026081F3108810BDFFF7F0FC98
:102B600010BD10B5406AFFF705FD10BD00B5024667
:102B700000F00DF8FF32FF3202325168884201D373
:102B8000401A00BD01225202511A081800BD006807
:102B9000406F0068406801214902081A70470068C8
:102BA0000068C169C90601D510210162704770B57E
:102BB000044602C001260D4676023146FDF724FD8B
:102BC0004120C00031462018FDF71EFD0020311DB8
:102BD00008517100611808722868016810221143B9
:102BE00001603246211D2846FFF726FC70BD0121F9
:102BF00089024018007A7047F0B514460D46034626
:102C0000FFF7B4FF844200D22046DF1D0026FF37C5
:102C1000FA377A68344607E099180979521C295521
:102C2000D205D20D641C761C8442F5D37A603046FE
:102C3000F0BDF8B50546002A07D0012080022F1804
:102C4000387A002803D00220F8BD0020F8BD012406
:102C50006402A24200D814464120C000281822462F
:102C60000646FDF727FC01203872A2B231462868DB
:102C7000FFF710FC0028E9D000213972F8BD70B5CB
:102C800005460C460846FDF7F3FB0246214628465A
:102C9000FFF7CFFF70BD0122002192028018017260
:102CA000704710B5EFF31081012282F3108802689B
:102CB0001368FF242134A343136081F31088EFF3DA
:102CC0001081012282F31088026893685B085B0020
:102CD000936081F31088016E01290BD1EFF310810D
:102CE000012282F31088026813681024A343136042
:102CF00081F31088202280210A500021016681661C
:102D000010BD10B5EFF31081012282F31088026824
:102D10001368C024A343136081F310882021C16786
:102D200010BD000070B5044680682169E26908435F
:102D30006169002511432268084311683F4B19401F
:102D40000143116021684868032212039043E2683E
:102D500010434860A169206A084321688A680B23F0
:102D60001B029A4302438A6035492068884210D189
:102D70003448006B8007800F0ED0012805D0022850
:102D800005D003280AD1022109E0042107E0082127
:102D900005E02D49884201D1002100E010210120E9
:102DA000E369C003294A2A4E834222D1002906D072
:102DB000022907D0042907D0082935D108E0FEF7F9
:102DC000E5FE03E0104603E0FEF7F0FE002830D0F9
:102DD000616840004A088018FDF74EFC0146103932
:102DE000B14221D81A49491C01400007400F08434D
:102DF0001DE0002906D0022907D0042907D00829A0
:102E000012D108E0FEF7C2FE03E0104603E0FEF731
:102E1000CDFE00280DD061684A081018FDF72CFC83
:102E200001461039B14201D9012502E080B2216882
:102E3000C8600020A066E066284670BDF369FFFF09
:102E400000380140001002400044004000127A00A7
:102E5000EFFF000070B5044641654030028300205A
:102E600025468035686022212960616F002919D0CC
:102E7000204B8B62636F2049D962636F1F491963CE
:102E8000616F13464863666D216832462431606F76
:102E9000FEF774FC002805D0102068602020286010
:102EA000012070BD206900280CD0EFF310800121B3
:102EB00081F3108821680A68FF2301331A430A60EE
:102EC00080F31088EFF31080012181F310882268CD
:102ED00093680B43936080F31088EFF3108081F3C5
:102EE000108821688A6840231A438A6080F310881A
:102EF000002070BD612A0008F92A0008152A000880
:102F0000FFB506468036054681B00F46044660355B
:102F100034E00A98401C31D0FEF750FD0499411A64
:102F20000A98814218D8002816D0206801684907FD
:102F300024D5802F22D0402F20D0C169C943090752
:102F40000CD4082707622046FFF7ABFE776000200D
:102F50002876012005B0F0BD0320FBE7C069C0431F
:102F600000050BD401202168C00208622046FFF74B
:102F700098FE2020706000202876EDE72068C16967
:102F80003846884305D0002103988142C1D00020F3
:102F9000E0E70121F8E7000010B50348FFF7FFFD67
:102FA0000248FFF70BF810BD2C0500209800002008
:102FB00010B50348FFF7F3FD0248FEF7FFFF10BD11
:102FC0002001002010000020F8B5040C8BB226462A
:102FD00082B25E430D0C1046370C584336048019FC
:102FE0000021794116466E43370C36048019794129
:102FF00026466E438919F8BD30B47446641E2578A0
:10300000641CAB4200D21D46635D5B00E31830BC1C
:10301000184700008307FF22DB0E9A408907090E3C
:103020009940002808DB830809489B001B18186892
:1030300090430843186070470007000F0838830862
:1030400004489B001B18D86990430843D861704717
:1030500000E400E000ED00E001464139192901D803
:103060000846704701466139192901D84738704729
:1030700001463039092901D8001D70472B2804D09A
:103080002F2804D00020C04370473E2070473F20C7
:1030900070470522D20110B5821800211163012169
:1030A0004902B030FDF7B0FA10BDF7B5002486B084
:1030B0000E460546274677E0641CB44207D2285DD9
:1030C000FFF7CAFF401C02D1285D3D28F4D1B4426D
:1030D0006CD2285D641CFFF7BFFF049000E0641C05
:1030E000B44207D2285DFFF7B7FF401C02D1285D2C
:1030F0003D28F4D1B44259D2285D641CFFF7ACFFDF
:10310000029000E0641CB44207D2285DFFF7A4FFE0
:10311000401C02D1285D3D28F4D1B44246D2285D3E
:10312000641C01903D2803D0FFF796FF039002E056
:103130000020FBE7641CB44207D2285DFFF78CFF38
:10314000401C02D1285D3D28F4D1B4422ED2285D26
:10315000641C00903D282CD0FFF77EFF04990029C5
:1031600022DB029900291FDB029A0499920689004A
:10317000920F1143089AD15501997F1C3D2913D014
:10318000039A029992060901120F1143089AD15528
:1031900000997F1C3D2907D0039980068901800E84
:1031A00001430898C1557F1CB44286D3384609B004
:1031B000F0BD0020D2E7000008B5FEF70DFCFFF7D8
:1031C0002AFBFFF7D9F924484169012211434161E3
:1031D000406901211040009000220A20FEF74EFCB9
:1031E0000A20FEF73FFC002201210B20FEF746FCDF
:1031F0000B20FEF737FCFFF719FAFFF733FA174CED
:1032000060690127FF02B8436061154D6969B80024
:10321000814369610926F606716980008143716105
:10322000FF20F530FEF7E0FA6069384360616869B5
:10323000B9000843686170698900084370610949F1
:103240000948FFF7B4FC08490848FEF7B5F80748F5
:10325000FEF750F9FBE700000010024000040048B0
:10326000000800481000002020010020380900203C
:1032700010B5FFF725FA10BDFFB581B004460E4624
:10328000FFF707FFFEF79AFB7D270546FF0004E0E6
:10329000FEF794FB401BB8420AD82068FFF7A7FC52
:1032A0000028F5D131462068FFF7E9FC002802D05C
:1032B000002005B0F0BD3220FEF796FA2046049AB1
:1032C000039900F04DF8F4E7F8B5074615460020DD
:1032D0000A4604462AE0904202D2395C401C00E0D3
:1032E0000021904202D23E5C401C00E00026904249
:1032F00002D23B5C401C00E000230904360231434B
:1033000019430B029E0E154B9E5D2E558E03B60E75
:103310009E5D641C2E550E05B60E9E5D641C2E55DA
:103320008906890E595C641C2955641C9042D2D3CD
:1033300003211046FDF7A0F93D20012902D0022902
:1033400005D007E029192039C877887702E02919C4
:103350002039C877002028552046F8BDBA34000827
:10336000F7B50446FEF72AFB074605202546C001AF
:10337000B035261824E02068FFF7F8FB02000ED0D5
:103380001348316B401A824200D90246491920681D
:10339000FFF732FC316B0818002130634155284695
:1033A0000199FDF751F8002801D00120FEBD09A1C7
:1033B0002846FDF749F8002808D10A20FEF714FA3C
:1033C000FEF7FCFA0299C01B8842D4D30020FEBD50
:1033D000FF0100004552524F520000000203040555
:1033E000060708090A0B0C0D0E0F1010010203044A
:1033F00005060708090A0B0C0D0E0F10000000004F
:103400000000000001020304060708090000000094
:1034100001020304000000000000000000000000A2
:10342000000000000000000000000000000000009C
:10343000000000000000000000000000000000008C
:10344000000000000000000000000000000000007C
:1034500000000000B3220000000000000000000097
:10346000000000000000000000000000000000005C
:10347000000000000000000000000000000000004C
:10348000000000000000000000000000000000003C
:10349000000000000000000000000000000000002C
:1034A000000000000000000000000000000000001C
:1034B00000000000000001007800414243444546FE
:1034C0004748494A4B4C4D4E4F5051525354555614
:1034D0005758595A6162636465666768696A6B6CBC
:1034E0006D6E6F707172737475767778797A30312A
:1034F00032333435363738392B2F00001C3500086D
:103500000000002010000000F80000082C35000822
:1035100010000020C81C0000140100080100000079
:0C352000040000000000000000127A000F
:04000005080000B53A
:00000001FF
